{
  "address": "0x4f57A1d1Ec759b0CD13D87d0bfe2A2E949F6009f",
  "abi": [
    {
      "inputs": [],
      "name": "MakerCannotFill",
      "type": "error"
    },
    {
      "inputs": [],
      "name": "NotMaker",
      "type": "error"
    },
    {
      "inputs": [],
      "name": "OrderNotOpen",
      "type": "error"
    },
    {
      "inputs": [
        {
          "internalType": "bytes32",
          "name": "handle",
          "type": "bytes32"
        },
        {
          "internalType": "address",
          "name": "sender",
          "type": "address"
        }
      ],
      "name": "SenderNotAllowedToUseHandle",
      "type": "error"
    },
    {
      "inputs": [],
      "name": "ZamaProtocolUnsupported",
      "type": "error"
    },
    {
      "anonymous": false,
      "inputs": [
        {
          "indexed": true,
          "internalType": "uint256",
          "name": "orderId",
          "type": "uint256"
        },
        {
          "indexed": true,
          "internalType": "address",
          "name": "viewer",
          "type": "address"
        }
      ],
      "name": "AccessGranted",
      "type": "event"
    },
    {
      "anonymous": false,
      "inputs": [
        {
          "indexed": true,
          "internalType": "uint256",
          "name": "orderId",
          "type": "uint256"
        }
      ],
      "name": "OrderCancelled",
      "type": "event"
    },
    {
      "anonymous": false,
      "inputs": [
        {
          "indexed": true,
          "internalType": "uint256",
          "name": "orderId",
          "type": "uint256"
        },
        {
          "indexed": true,
          "internalType": "address",
          "name": "maker",
          "type": "address"
        },
        {
          "indexed": false,
          "internalType": "string",
          "name": "tokenPair",
          "type": "string"
        },
        {
          "indexed": false,
          "internalType": "bool",
          "name": "isBuy",
          "type": "bool"
        }
      ],
      "name": "OrderCreated",
      "type": "event"
    },
    {
      "anonymous": false,
      "inputs": [
        {
          "indexed": true,
          "internalType": "uint256",
          "name": "orderId",
          "type": "uint256"
        },
        {
          "indexed": true,
          "internalType": "address",
          "name": "maker",
          "type": "address"
        },
        {
          "indexed": true,
          "internalType": "address",
          "name": "taker",
          "type": "address"
        }
      ],
      "name": "OrderFilled",
      "type": "event"
    },
    {
      "inputs": [
        {
          "internalType": "uint256",
          "name": "orderId",
          "type": "uint256"
        }
      ],
      "name": "cancelOrder",
      "outputs": [],
      "stateMutability": "nonpayable",
      "type": "function"
    },
    {
      "inputs": [],
      "name": "confidentialProtocolId",
      "outputs": [
        {
          "internalType": "uint256",
          "name": "",
          "type": "uint256"
        }
      ],
      "stateMutability": "view",
      "type": "function"
    },
    {
      "inputs": [
        {
          "internalType": "externalEuint64",
          "name": "encPrice",
          "type": "bytes32"
        },
        {
          "internalType": "bytes",
          "name": "priceProof",
          "type": "bytes"
        },
        {
          "internalType": "externalEuint64",
          "name": "encAmount",
          "type": "bytes32"
        },
        {
          "internalType": "bytes",
          "name": "amountProof",
          "type": "bytes"
        },
        {
          "internalType": "bool",
          "name": "isBuy",
          "type": "bool"
        },
        {
          "internalType": "string",
          "name": "tokenPair",
          "type": "string"
        }
      ],
      "name": "createOrder",
      "outputs": [
        {
          "internalType": "uint256",
          "name": "orderId",
          "type": "uint256"
        }
      ],
      "stateMutability": "nonpayable",
      "type": "function"
    },
    {
      "inputs": [
        {
          "internalType": "uint256",
          "name": "orderId",
          "type": "uint256"
        }
      ],
      "name": "fillOrder",
      "outputs": [],
      "stateMutability": "nonpayable",
      "type": "function"
    },
    {
      "inputs": [
        {
          "internalType": "uint256",
          "name": "orderId",
          "type": "uint256"
        }
      ],
      "name": "getAmount",
      "outputs": [
        {
          "internalType": "euint64",
          "name": "",
          "type": "bytes32"
        }
      ],
      "stateMutability": "view",
      "type": "function"
    },
    {
      "inputs": [
        {
          "internalType": "uint256",
          "name": "orderId",
          "type": "uint256"
        }
      ],
      "name": "getOrder",
      "outputs": [
        {
          "internalType": "address",
          "name": "maker",
          "type": "address"
        },
        {
          "internalType": "address",
          "name": "taker",
          "type": "address"
        },
        {
          "internalType": "string",
          "name": "tokenPair",
          "type": "string"
        },
        {
          "internalType": "bool",
          "name": "isBuy",
          "type": "bool"
        },
        {
          "internalType": "enum ConfidentialOTC.Status",
          "name": "status",
          "type": "uint8"
        },
        {
          "internalType": "uint256",
          "name": "createdAt",
          "type": "uint256"
        }
      ],
      "stateMutability": "view",
      "type": "function"
    },
    {
      "inputs": [
        {
          "internalType": "uint256",
          "name": "orderId",
          "type": "uint256"
        }
      ],
      "name": "getPrice",
      "outputs": [
        {
          "internalType": "euint64",
          "name": "",
          "type": "bytes32"
        }
      ],
      "stateMutability": "view",
      "type": "function"
    },
    {
      "inputs": [
        {
          "internalType": "uint256",
          "name": "orderId",
          "type": "uint256"
        },
        {
          "internalType": "address",
          "name": "viewer",
          "type": "address"
        }
      ],
      "name": "grantAccess",
      "outputs": [],
      "stateMutability": "nonpayable",
      "type": "function"
    },
    {
      "inputs": [],
      "name": "orderCount",
      "outputs": [
        {
          "internalType": "uint256",
          "name": "",
          "type": "uint256"
        }
      ],
      "stateMutability": "view",
      "type": "function"
    }
  ],
  "transactionHash": "0x60aeaa1a1f73604df449c0705cf493975182fdc7ee2cab4555dcc633ae5578d7",
  "args": [],
  "numDeployments": 1,
  "solcInputHash": "979abbaf63864d34d4070b9cf116b0dd",
  "bytecode": "0x608060405234801561000f575f5ffd5b506100c461001b6100c9565b80517f9e7b61f58c47dc699ac88507c4f5bb9f121c03808c5676a8078fe583e464970080546001600160a01b03199081166001600160a01b039384161790915560208301517f9e7b61f58c47dc699ac88507c4f5bb9f121c03808c5676a8078fe583e46497018054831691841691909117905560408301517f9e7b61f58c47dc699ac88507c4f5bb9f121c03808c5676a8078fe583e46497028054909216921691909117905550565b610278565b604080516060810182525f808252602082018190529181019190915246600103610162575060408051606080820183525f8083526020808401829052928401528251908101835273ca2e8f1f656cd25c01f05d0b243ab1ecd4a8ffb6815273d82385dada1ae3e969447f20a3164f6213100e75918101919091527377627828a55156b04ac0dc0eb30467f1a552bb039181019190915290565b4662aa36a7036101e1575060408051606080820183525f8083526020808401829052928401528251908101835273f0ffdc93b7e186bc2f8cb3daa75d86d1930a433d81527392c920834ec8941d2c77d188936e1f7a6f49c1279181019190915273be0e383937d564d7ff0bc3b46c51f0bf8d5c311a9181019190915290565b46617a690361025f575060408051606080820183525f808352602080840182905292840152825190810183527350157cffd6bbfa2dece204a89ec419c23ef5755d815273e3a9105a3a932253a70f126eb1e3b589c643dd249181019190915273901f8942346f7ab3a01f6d7613119bca447bb0309181019190915290565b6040516373cac13b60e01b815260040160405180910390fd5b610ff8806102855f395ff3fe608060405234801561000f575f5ffd5b506004361061009f575f3560e01c806384770744116100725780639980ec86116100585780639980ec861461010f578063d09ef24114610122578063e757223014610147575f5ffd5b806384770744146100f45780638927b03014610107575f5ffd5b80632453ffa8146100a3578063514fcac7146100b957806365dd152c146100ce57806367b830ad146100e1575b5f5ffd5b5f545b6040519081526020015b60405180910390f35b6100cc6100c7366004610ba3565b61015a565b005b6100cc6100dc366004610bba565b610222565b6100cc6100ef366004610ba3565b6102c9565b6100a6610102366004610c48565b6103e4565b6100a661064a565b6100a661011d366004610ba3565b610658565b610135610130366004610ba3565b610682565b6040516100b096959493929190610d4f565b6100a6610155366004610ba3565b610783565b5f5f828154811061016d5761016d610dad565b5f9182526020822060079091020191506005820154610100900460ff16600281111561019b5761019b610d3b565b146101b95760405163206931ef60e01b815260040160405180910390fd5b80546001600160a01b031633146101e35760405163b331e42160e01b815260040160405180910390fd5b60058101805461ff00191661020017905560405182907f61b9399f2f0f32ca39ce8d7be32caed5ec22fe07a6daba3a467ed479ec606582905f90a25050565b5f5f838154811061023557610235610dad565b5f918252602090912060079091020180549091506001600160a01b031633146102715760405163b331e42160e01b815260040160405180910390fd5b61027f8160020154836107ad565b5061028e8160030154836107ad565b506040516001600160a01b0383169084907f3c3a9147a1fc73dd51a32f4d10c43d457e8cb826eb6f35cac6349eb965ba82b4905f90a3505050565b5f5f82815481106102dc576102dc610dad565b5f9182526020822060079091020191506005820154610100900460ff16600281111561030a5761030a610d3b565b146103285760405163206931ef60e01b815260040160405180910390fd5b8054336001600160a01b039091160361035457604051632a3cd12360e21b815260040160405180910390fd5b6001808201805473ffffffffffffffffffffffffffffffffffffffff19163317905560058201805461ff0019166101008302179055506103988160020154336107ad565b506103a78160030154336107ad565b50805460405133916001600160a01b03169084907fb95bd6b5197f9514da87ce3cfe768944654f075367fd32c5f8e3659e9fb36238905f90a45050565b5f5f6104258b8b8b8080601f0160208091040260200160405190810160405280939291908181526020018383808284375f920191909152506107d292505050565b90505f6104678989898080601f0160208091040260200160405190810160405280939291908181526020018383808284375f920191909152506107d292505050565b90506104728261083c565b5061047d82336107ad565b506104878161083c565b5061049281336107ad565b505f8054905092505f604051806101000160405280336001600160a01b031681526020015f6001600160a01b0316815260200184815260200183815260200187878080601f0160208091040260200160405190810160405280939291908181526020018383808284375f92018290525093855250505089151560208301526040909101908152426020918201528254600180820185555f948552938290208351600790920201805473ffffffffffffffffffffffffffffffffffffffff199081166001600160a01b03938416178255928401519481018054909316949091169390931790556040810151600283015560608101516003830155608081015190919060048201906105a29082610e59565b5060a082015160058201805491151560ff1983168117825560c08501519261ff001990911661ffff19909116176101008360028111156105e4576105e4610d3b565b021790555060e082015181600601555050336001600160a01b0316837f5ae5bcc050974e9eadc6121f9f648a9d41e608ab269a139eedff2c742b31650b87878a60405161063393929190610f14565b60405180910390a350509998505050505050505050565b5f61065361085c565b905090565b5f5f828154811061066b5761066b610dad565b905f5260205f209060070201600301549050919050565b5f5f60605f5f5f5f5f888154811061069c5761069c610dad565b5f918252602090912060079091020180546001820154600583015460068401546004850180549596506001600160a01b0394851695949093169360ff80841693610100900416919084906106ef90610dd5565b80601f016020809104026020016040519081016040528092919081815260200182805461071b90610dd5565b80156107665780601f1061073d57610100808354040283529160200191610766565b820191905f5260205f20905b81548152906001019060200180831161074957829003601f168201915b505050505093509650965096509650965096505091939550919395565b5f5f828154811061079657610796610dad565b905f5260205f209060070201600201549050919050565b5f826107bf576107bc5f610890565b92505b6107c983836108a6565b50815b92915050565b5f81515f146107ee576107e78383600561092f565b90506107cc565b825f819003610808576108005f610890565b9150506107cc565b6108128133610a4f565b6107e757604051630276b5d960e01b81526004810182905233602482015260440160405180910390fd5b5f8161084e5761084b5f610890565b91505b61085882306108a6565b5090565b5f4660010361086b5750600190565b4662aa36a70361087c575061271190565b46617a690361088b57505f1990565b505f90565b5f6107cc8267ffffffffffffffff166005610aee565b5f7f9e7b61f58c47dc699ac88507c4f5bb9f121c03808c5676a8078fe583e46497008054604051635ca4b5b160e11b8152600481018690526001600160a01b03858116602483015292935091169063b9496b62906044015f604051808303815f87803b158015610914575f5ffd5b505af1158015610926573d5f5f3e3d5ffd5b50505050505050565b7f9e7b61f58c47dc699ac88507c4f5bb9f121c03808c5676a8078fe583e46497015460405163045fc19560e11b81525f917f9e7b61f58c47dc699ac88507c4f5bb9f121c03808c5676a8078fe583e4649700916001600160a01b03909116906308bf832a906109a8908890339089908990600401610f5f565b6020604051808303815f875af11580156109c4573d5f5f3e3d5ffd5b505050506040513d601f19601f820116820180604052508101906109e89190610f9e565b8154604051630f8e573b60e21b8152600481018390523360248201529193506001600160a01b031690633e395cec906044015f604051808303815f87803b158015610a31575f5ffd5b505af1158015610a43573d5f5f3e3d5ffd5b50505050509392505050565b5f807f9e7b61f58c47dc699ac88507c4f5bb9f121c03808c5676a8078fe583e464970080546040516382027b6d60e01b8152600481018790526001600160a01b0386811660248301529293509116906382027b6d90604401602060405180830381865afa158015610ac2573d5f5f3e3d5ffd5b505050506040513d601f19601f82011682018060405250810190610ae69190610fb5565b949350505050565b7f9e7b61f58c47dc699ac88507c4f5bb9f121c03808c5676a8078fe583e464970154604051639cd07acb60e01b81525f917f9e7b61f58c47dc699ac88507c4f5bb9f121c03808c5676a8078fe583e4649700916001600160a01b0390911690639cd07acb90610b639087908790600401610fd7565b6020604051808303815f875af1158015610b7f573d5f5f3e3d5ffd5b505050506040513d601f19601f82011682018060405250810190610ae69190610f9e565b5f60208284031215610bb3575f5ffd5b5035919050565b5f5f60408385031215610bcb575f5ffd5b8235915060208301356001600160a01b0381168114610be8575f5ffd5b809150509250929050565b5f5f83601f840112610c03575f5ffd5b50813567ffffffffffffffff811115610c1a575f5ffd5b602083019150836020828501011115610c31575f5ffd5b9250929050565b8015158114610c45575f5ffd5b50565b5f5f5f5f5f5f5f5f5f60c08a8c031215610c60575f5ffd5b8935985060208a013567ffffffffffffffff811115610c7d575f5ffd5b610c898c828d01610bf3565b90995097505060408a0135955060608a013567ffffffffffffffff811115610caf575f5ffd5b610cbb8c828d01610bf3565b90965094505060808a0135610ccf81610c38565b925060a08a013567ffffffffffffffff811115610cea575f5ffd5b610cf68c828d01610bf3565b915080935050809150509295985092959850929598565b5f81518084528060208401602086015e5f602082860101526020601f19601f83011685010191505092915050565b634e487b7160e01b5f52602160045260245ffd5b6001600160a01b03871681526001600160a01b038616602082015260c060408201525f610d7f60c0830187610d0d565b9050841515606083015260038410610d9957610d99610d3b565b608082019390935260a00152949350505050565b634e487b7160e01b5f52603260045260245ffd5b634e487b7160e01b5f52604160045260245ffd5b600181811c90821680610de957607f821691505b602082108103610e0757634e487b7160e01b5f52602260045260245ffd5b50919050565b601f821115610e5457805f5260205f20601f840160051c81016020851015610e325750805b601f840160051c820191505b81811015610e51575f8155600101610e3e565b50505b505050565b815167ffffffffffffffff811115610e7357610e73610dc1565b610e8781610e818454610dd5565b84610e0d565b6020601f821160018114610eb9575f8315610ea25750848201515b5f19600385901b1c1916600184901b178455610e51565b5f84815260208120601f198516915b82811015610ee85787850151825560209485019460019092019101610ec8565b5084821015610f0557868401515f19600387901b60f8161c191681555b50505050600190811b01905550565b60408152826040820152828460608301375f60608483018101919091529115156020820152601f909201601f191690910101919050565b60548110610f5b57610f5b610d3b565b9052565b8481526001600160a01b0384166020820152608060408201525f610f866080830185610d0d565b9050610f956060830184610f4b565b95945050505050565b5f60208284031215610fae575f5ffd5b5051919050565b5f60208284031215610fc5575f5ffd5b8151610fd081610c38565b9392505050565b82815260408101610fd06020830184610f4b56fea164736f6c634300081b000a",
  "devdoc": {
    "kind": "dev",
    "methods": {},
    "title": "ConfidentialOTC - Private OTC Trading with FHE",
    "version": 1
  },
  "userdoc": {
    "errors": {
      "SenderNotAllowedToUseHandle(bytes32,address)": [
        {
          "notice": "Returned if the sender is not allowed to use the handle."
        }
      ],
      "ZamaProtocolUnsupported()": [
        {
          "notice": "Returned if the Zama protocol is not supported on the current chain"
        }
      ]
    },
    "kind": "user",
    "methods": {
      "cancelOrder(uint256)": {
        "notice": "Cancel an open order (maker only)"
      },
      "createOrder(bytes32,bytes,bytes32,bytes,bool,string)": {
        "notice": "Create an OTC order with encrypted price and amount"
      },
      "fillOrder(uint256)": {
        "notice": "Fill an open order as the taker"
      },
      "getAmount(uint256)": {
        "notice": "Get encrypted amount (only accessible by allowed addresses)"
      },
      "getOrder(uint256)": {
        "notice": "Get public fields of an order"
      },
      "getPrice(uint256)": {
        "notice": "Get encrypted price (only accessible by allowed addresses)"
      },
      "grantAccess(uint256,address)": {
        "notice": "Maker grants a specific address permission to view encrypted fields"
      },
      "orderCount()": {
        "notice": "Total number of orders created"
      }
    },
    "notice": "Encrypted price & amount prevent front-running and information leakage.         Only counterparties can decrypt trade details.",
    "version": 1
  },
  "storageLayout": {
    "storage": [
      {
        "astId": 42195,
        "contract": "contracts/ConfidentialOTC.sol:ConfidentialOTC",
        "label": "_orders",
        "offset": 0,
        "slot": "0",
        "type": "t_array(t_struct(Order)42191_storage)dyn_storage"
      }
    ],
    "types": {
      "t_address": {
        "encoding": "inplace",
        "label": "address",
        "numberOfBytes": "20"
      },
      "t_array(t_struct(Order)42191_storage)dyn_storage": {
        "base": "t_struct(Order)42191_storage",
        "encoding": "dynamic_array",
        "label": "struct ConfidentialOTC.Order[]",
        "numberOfBytes": "32"
      },
      "t_bool": {
        "encoding": "inplace",
        "label": "bool",
        "numberOfBytes": "1"
      },
      "t_enum(Status)42171": {
        "encoding": "inplace",
        "label": "enum ConfidentialOTC.Status",
        "numberOfBytes": "1"
      },
      "t_string_storage": {
        "encoding": "bytes",
        "label": "string",
        "numberOfBytes": "32"
      },
      "t_struct(Order)42191_storage": {
        "encoding": "inplace",
        "label": "struct ConfidentialOTC.Order",
        "members": [
          {
            "astId": 42173,
            "contract": "contracts/ConfidentialOTC.sol:ConfidentialOTC",
            "label": "maker",
            "offset": 0,
            "slot": "0",
            "type": "t_address"
          },
          {
            "astId": 42175,
            "contract": "contracts/ConfidentialOTC.sol:ConfidentialOTC",
            "label": "taker",
            "offset": 0,
            "slot": "1",
            "type": "t_address"
          },
          {
            "astId": 42178,
            "contract": "contracts/ConfidentialOTC.sol:ConfidentialOTC",
            "label": "price",
            "offset": 0,
            "slot": "2",
            "type": "t_userDefinedValueType(euint64)42700"
          },
          {
            "astId": 42181,
            "contract": "contracts/ConfidentialOTC.sol:ConfidentialOTC",
            "label": "amount",
            "offset": 0,
            "slot": "3",
            "type": "t_userDefinedValueType(euint64)42700"
          },
          {
            "astId": 42183,
            "contract": "contracts/ConfidentialOTC.sol:ConfidentialOTC",
            "label": "tokenPair",
            "offset": 0,
            "slot": "4",
            "type": "t_string_storage"
          },
          {
            "astId": 42185,
            "contract": "contracts/ConfidentialOTC.sol:ConfidentialOTC",
            "label": "isBuy",
            "offset": 0,
            "slot": "5",
            "type": "t_bool"
          },
          {
            "astId": 42188,
            "contract": "contracts/ConfidentialOTC.sol:ConfidentialOTC",
            "label": "status",
            "offset": 1,
            "slot": "5",
            "type": "t_enum(Status)42171"
          },
          {
            "astId": 42190,
            "contract": "contracts/ConfidentialOTC.sol:ConfidentialOTC",
            "label": "createdAt",
            "offset": 0,
            "slot": "6",
            "type": "t_uint256"
          }
        ],
        "numberOfBytes": "224"
      },
      "t_uint256": {
        "encoding": "inplace",
        "label": "uint256",
        "numberOfBytes": "32"
      },
      "t_userDefinedValueType(euint64)42700": {
        "encoding": "inplace",
        "label": "euint64",
        "numberOfBytes": "32"
      }
    }
  }
}