{
  "address": "0x3B588E0200B39bCAf50c0A9293f4Cd5a6609bb22",
  "abi": [
    {
      "inputs": [
        {
          "internalType": "contract IERC20",
          "name": "_underlying",
          "type": "address"
        }
      ],
      "stateMutability": "nonpayable",
      "type": "constructor"
    },
    {
      "inputs": [
        {
          "internalType": "uint256",
          "name": "requestId",
          "type": "uint256"
        }
      ],
      "name": "ERC7984InvalidGatewayRequest",
      "type": "error"
    },
    {
      "inputs": [
        {
          "internalType": "address",
          "name": "receiver",
          "type": "address"
        }
      ],
      "name": "ERC7984InvalidReceiver",
      "type": "error"
    },
    {
      "inputs": [
        {
          "internalType": "address",
          "name": "sender",
          "type": "address"
        }
      ],
      "name": "ERC7984InvalidSender",
      "type": "error"
    },
    {
      "inputs": [],
      "name": "ERC7984TotalSupplyOverflow",
      "type": "error"
    },
    {
      "inputs": [
        {
          "internalType": "address",
          "name": "caller",
          "type": "address"
        }
      ],
      "name": "ERC7984UnauthorizedCaller",
      "type": "error"
    },
    {
      "inputs": [
        {
          "internalType": "address",
          "name": "holder",
          "type": "address"
        },
        {
          "internalType": "address",
          "name": "spender",
          "type": "address"
        }
      ],
      "name": "ERC7984UnauthorizedSpender",
      "type": "error"
    },
    {
      "inputs": [
        {
          "internalType": "euint64",
          "name": "amount",
          "type": "bytes32"
        },
        {
          "internalType": "address",
          "name": "user",
          "type": "address"
        }
      ],
      "name": "ERC7984UnauthorizedUseOfEncryptedAmount",
      "type": "error"
    },
    {
      "inputs": [
        {
          "internalType": "address",
          "name": "holder",
          "type": "address"
        }
      ],
      "name": "ERC7984ZeroBalance",
      "type": "error"
    },
    {
      "inputs": [],
      "name": "InvalidKMSSignatures",
      "type": "error"
    },
    {
      "inputs": [
        {
          "internalType": "euint64",
          "name": "amount",
          "type": "bytes32"
        }
      ],
      "name": "InvalidUnwrapRequest",
      "type": "error"
    },
    {
      "inputs": [
        {
          "internalType": "uint8",
          "name": "bits",
          "type": "uint8"
        },
        {
          "internalType": "uint256",
          "name": "value",
          "type": "uint256"
        }
      ],
      "name": "SafeCastOverflowedUintDowncast",
      "type": "error"
    },
    {
      "inputs": [
        {
          "internalType": "address",
          "name": "token",
          "type": "address"
        }
      ],
      "name": "SafeERC20FailedOperation",
      "type": "error"
    },
    {
      "inputs": [
        {
          "internalType": "bytes32",
          "name": "handle",
          "type": "bytes32"
        },
        {
          "internalType": "address",
          "name": "sender",
          "type": "address"
        }
      ],
      "name": "SenderNotAllowedToUseHandle",
      "type": "error"
    },
    {
      "inputs": [],
      "name": "ZamaProtocolUnsupported",
      "type": "error"
    },
    {
      "anonymous": false,
      "inputs": [
        {
          "indexed": true,
          "internalType": "euint64",
          "name": "encryptedAmount",
          "type": "bytes32"
        },
        {
          "indexed": true,
          "internalType": "address",
          "name": "requester",
          "type": "address"
        }
      ],
      "name": "AmountDiscloseRequested",
      "type": "event"
    },
    {
      "anonymous": false,
      "inputs": [
        {
          "indexed": true,
          "internalType": "euint64",
          "name": "encryptedAmount",
          "type": "bytes32"
        },
        {
          "indexed": false,
          "internalType": "uint64",
          "name": "amount",
          "type": "uint64"
        }
      ],
      "name": "AmountDisclosed",
      "type": "event"
    },
    {
      "anonymous": false,
      "inputs": [
        {
          "indexed": true,
          "internalType": "address",
          "name": "from",
          "type": "address"
        },
        {
          "indexed": true,
          "internalType": "address",
          "name": "to",
          "type": "address"
        },
        {
          "indexed": true,
          "internalType": "euint64",
          "name": "amount",
          "type": "bytes32"
        }
      ],
      "name": "ConfidentialTransfer",
      "type": "event"
    },
    {
      "anonymous": false,
      "inputs": [
        {
          "indexed": true,
          "internalType": "address",
          "name": "holder",
          "type": "address"
        },
        {
          "indexed": true,
          "internalType": "address",
          "name": "operator",
          "type": "address"
        },
        {
          "indexed": false,
          "internalType": "uint48",
          "name": "until",
          "type": "uint48"
        }
      ],
      "name": "OperatorSet",
      "type": "event"
    },
    {
      "anonymous": false,
      "inputs": [
        {
          "indexed": false,
          "internalType": "bytes32[]",
          "name": "handlesList",
          "type": "bytes32[]"
        },
        {
          "indexed": false,
          "internalType": "bytes",
          "name": "abiEncodedCleartexts",
          "type": "bytes"
        }
      ],
      "name": "PublicDecryptionVerified",
      "type": "event"
    },
    {
      "anonymous": false,
      "inputs": [
        {
          "indexed": true,
          "internalType": "address",
          "name": "receiver",
          "type": "address"
        },
        {
          "indexed": false,
          "internalType": "euint64",
          "name": "encryptedAmount",
          "type": "bytes32"
        },
        {
          "indexed": false,
          "internalType": "uint64",
          "name": "cleartextAmount",
          "type": "uint64"
        }
      ],
      "name": "UnwrapFinalized",
      "type": "event"
    },
    {
      "anonymous": false,
      "inputs": [
        {
          "indexed": true,
          "internalType": "address",
          "name": "receiver",
          "type": "address"
        },
        {
          "indexed": false,
          "internalType": "euint64",
          "name": "amount",
          "type": "bytes32"
        }
      ],
      "name": "UnwrapRequested",
      "type": "event"
    },
    {
      "inputs": [
        {
          "internalType": "address",
          "name": "account",
          "type": "address"
        }
      ],
      "name": "confidentialBalanceOf",
      "outputs": [
        {
          "internalType": "euint64",
          "name": "",
          "type": "bytes32"
        }
      ],
      "stateMutability": "view",
      "type": "function"
    },
    {
      "inputs": [],
      "name": "confidentialProtocolId",
      "outputs": [
        {
          "internalType": "uint256",
          "name": "",
          "type": "uint256"
        }
      ],
      "stateMutability": "view",
      "type": "function"
    },
    {
      "inputs": [],
      "name": "confidentialTotalSupply",
      "outputs": [
        {
          "internalType": "euint64",
          "name": "",
          "type": "bytes32"
        }
      ],
      "stateMutability": "view",
      "type": "function"
    },
    {
      "inputs": [
        {
          "internalType": "address",
          "name": "to",
          "type": "address"
        },
        {
          "internalType": "externalEuint64",
          "name": "encryptedAmount",
          "type": "bytes32"
        },
        {
          "internalType": "bytes",
          "name": "inputProof",
          "type": "bytes"
        }
      ],
      "name": "confidentialTransfer",
      "outputs": [
        {
          "internalType": "euint64",
          "name": "",
          "type": "bytes32"
        }
      ],
      "stateMutability": "nonpayable",
      "type": "function"
    },
    {
      "inputs": [
        {
          "internalType": "address",
          "name": "to",
          "type": "address"
        },
        {
          "internalType": "euint64",
          "name": "amount",
          "type": "bytes32"
        }
      ],
      "name": "confidentialTransfer",
      "outputs": [
        {
          "internalType": "euint64",
          "name": "",
          "type": "bytes32"
        }
      ],
      "stateMutability": "nonpayable",
      "type": "function"
    },
    {
      "inputs": [
        {
          "internalType": "address",
          "name": "to",
          "type": "address"
        },
        {
          "internalType": "euint64",
          "name": "amount",
          "type": "bytes32"
        },
        {
          "internalType": "bytes",
          "name": "data",
          "type": "bytes"
        }
      ],
      "name": "confidentialTransferAndCall",
      "outputs": [
        {
          "internalType": "euint64",
          "name": "transferred",
          "type": "bytes32"
        }
      ],
      "stateMutability": "nonpayable",
      "type": "function"
    },
    {
      "inputs": [
        {
          "internalType": "address",
          "name": "to",
          "type": "address"
        },
        {
          "internalType": "externalEuint64",
          "name": "encryptedAmount",
          "type": "bytes32"
        },
        {
          "internalType": "bytes",
          "name": "inputProof",
          "type": "bytes"
        },
        {
          "internalType": "bytes",
          "name": "data",
          "type": "bytes"
        }
      ],
      "name": "confidentialTransferAndCall",
      "outputs": [
        {
          "internalType": "euint64",
          "name": "transferred",
          "type": "bytes32"
        }
      ],
      "stateMutability": "nonpayable",
      "type": "function"
    },
    {
      "inputs": [
        {
          "internalType": "address",
          "name": "from",
          "type": "address"
        },
        {
          "internalType": "address",
          "name": "to",
          "type": "address"
        },
        {
          "internalType": "externalEuint64",
          "name": "encryptedAmount",
          "type": "bytes32"
        },
        {
          "internalType": "bytes",
          "name": "inputProof",
          "type": "bytes"
        }
      ],
      "name": "confidentialTransferFrom",
      "outputs": [
        {
          "internalType": "euint64",
          "name": "transferred",
          "type": "bytes32"
        }
      ],
      "stateMutability": "nonpayable",
      "type": "function"
    },
    {
      "inputs": [
        {
          "internalType": "address",
          "name": "from",
          "type": "address"
        },
        {
          "internalType": "address",
          "name": "to",
          "type": "address"
        },
        {
          "internalType": "euint64",
          "name": "amount",
          "type": "bytes32"
        }
      ],
      "name": "confidentialTransferFrom",
      "outputs": [
        {
          "internalType": "euint64",
          "name": "transferred",
          "type": "bytes32"
        }
      ],
      "stateMutability": "nonpayable",
      "type": "function"
    },
    {
      "inputs": [
        {
          "internalType": "address",
          "name": "from",
          "type": "address"
        },
        {
          "internalType": "address",
          "name": "to",
          "type": "address"
        },
        {
          "internalType": "externalEuint64",
          "name": "encryptedAmount",
          "type": "bytes32"
        },
        {
          "internalType": "bytes",
          "name": "inputProof",
          "type": "bytes"
        },
        {
          "internalType": "bytes",
          "name": "data",
          "type": "bytes"
        }
      ],
      "name": "confidentialTransferFromAndCall",
      "outputs": [
        {
          "internalType": "euint64",
          "name": "transferred",
          "type": "bytes32"
        }
      ],
      "stateMutability": "nonpayable",
      "type": "function"
    },
    {
      "inputs": [
        {
          "internalType": "address",
          "name": "from",
          "type": "address"
        },
        {
          "internalType": "address",
          "name": "to",
          "type": "address"
        },
        {
          "internalType": "euint64",
          "name": "amount",
          "type": "bytes32"
        },
        {
          "internalType": "bytes",
          "name": "data",
          "type": "bytes"
        }
      ],
      "name": "confidentialTransferFromAndCall",
      "outputs": [
        {
          "internalType": "euint64",
          "name": "transferred",
          "type": "bytes32"
        }
      ],
      "stateMutability": "nonpayable",
      "type": "function"
    },
    {
      "inputs": [],
      "name": "contractURI",
      "outputs": [
        {
          "internalType": "string",
          "name": "",
          "type": "string"
        }
      ],
      "stateMutability": "view",
      "type": "function"
    },
    {
      "inputs": [],
      "name": "decimals",
      "outputs": [
        {
          "internalType": "uint8",
          "name": "",
          "type": "uint8"
        }
      ],
      "stateMutability": "view",
      "type": "function"
    },
    {
      "inputs": [
        {
          "internalType": "address",
          "name": "from",
          "type": "address"
        },
        {
          "internalType": "address",
          "name": "to",
          "type": "address"
        },
        {
          "internalType": "uint256",
          "name": "amount",
          "type": "uint256"
        }
      ],
      "name": "depositFrom",
      "outputs": [
        {
          "internalType": "bool",
          "name": "",
          "type": "bool"
        }
      ],
      "stateMutability": "nonpayable",
      "type": "function"
    },
    {
      "inputs": [
        {
          "internalType": "address",
          "name": "to",
          "type": "address"
        },
        {
          "internalType": "uint256",
          "name": "amount",
          "type": "uint256"
        }
      ],
      "name": "depositTransfer",
      "outputs": [
        {
          "internalType": "bool",
          "name": "",
          "type": "bool"
        }
      ],
      "stateMutability": "nonpayable",
      "type": "function"
    },
    {
      "inputs": [
        {
          "internalType": "euint64",
          "name": "encryptedAmount",
          "type": "bytes32"
        },
        {
          "internalType": "uint64",
          "name": "cleartextAmount",
          "type": "uint64"
        },
        {
          "internalType": "bytes",
          "name": "decryptionProof",
          "type": "bytes"
        }
      ],
      "name": "discloseEncryptedAmount",
      "outputs": [],
      "stateMutability": "nonpayable",
      "type": "function"
    },
    {
      "inputs": [
        {
          "internalType": "euint64",
          "name": "burntAmount",
          "type": "bytes32"
        },
        {
          "internalType": "uint64",
          "name": "burntAmountCleartext",
          "type": "uint64"
        },
        {
          "internalType": "bytes",
          "name": "decryptionProof",
          "type": "bytes"
        }
      ],
      "name": "finalizeUnwrap",
      "outputs": [],
      "stateMutability": "nonpayable",
      "type": "function"
    },
    {
      "inputs": [],
      "name": "inferredTotalSupply",
      "outputs": [
        {
          "internalType": "uint256",
          "name": "",
          "type": "uint256"
        }
      ],
      "stateMutability": "view",
      "type": "function"
    },
    {
      "inputs": [
        {
          "internalType": "address",
          "name": "holder",
          "type": "address"
        },
        {
          "internalType": "address",
          "name": "spender",
          "type": "address"
        }
      ],
      "name": "isOperator",
      "outputs": [
        {
          "internalType": "bool",
          "name": "",
          "type": "bool"
        }
      ],
      "stateMutability": "view",
      "type": "function"
    },
    {
      "inputs": [],
      "name": "maxTotalSupply",
      "outputs": [
        {
          "internalType": "uint256",
          "name": "",
          "type": "uint256"
        }
      ],
      "stateMutability": "view",
      "type": "function"
    },
    {
      "inputs": [],
      "name": "name",
      "outputs": [
        {
          "internalType": "string",
          "name": "",
          "type": "string"
        }
      ],
      "stateMutability": "view",
      "type": "function"
    },
    {
      "inputs": [
        {
          "internalType": "address",
          "name": "",
          "type": "address"
        },
        {
          "internalType": "address",
          "name": "from",
          "type": "address"
        },
        {
          "internalType": "uint256",
          "name": "amount",
          "type": "uint256"
        },
        {
          "internalType": "bytes",
          "name": "data",
          "type": "bytes"
        }
      ],
      "name": "onTransferReceived",
      "outputs": [
        {
          "internalType": "bytes4",
          "name": "",
          "type": "bytes4"
        }
      ],
      "stateMutability": "nonpayable",
      "type": "function"
    },
    {
      "inputs": [],
      "name": "rate",
      "outputs": [
        {
          "internalType": "uint256",
          "name": "",
          "type": "uint256"
        }
      ],
      "stateMutability": "view",
      "type": "function"
    },
    {
      "inputs": [
        {
          "internalType": "euint64",
          "name": "encryptedAmount",
          "type": "bytes32"
        }
      ],
      "name": "requestDiscloseEncryptedAmount",
      "outputs": [],
      "stateMutability": "nonpayable",
      "type": "function"
    },
    {
      "inputs": [
        {
          "internalType": "address",
          "name": "operator",
          "type": "address"
        },
        {
          "internalType": "uint48",
          "name": "until",
          "type": "uint48"
        }
      ],
      "name": "setOperator",
      "outputs": [],
      "stateMutability": "nonpayable",
      "type": "function"
    },
    {
      "inputs": [
        {
          "internalType": "bytes4",
          "name": "interfaceId",
          "type": "bytes4"
        }
      ],
      "name": "supportsInterface",
      "outputs": [
        {
          "internalType": "bool",
          "name": "",
          "type": "bool"
        }
      ],
      "stateMutability": "view",
      "type": "function"
    },
    {
      "inputs": [],
      "name": "symbol",
      "outputs": [
        {
          "internalType": "string",
          "name": "",
          "type": "string"
        }
      ],
      "stateMutability": "view",
      "type": "function"
    },
    {
      "inputs": [],
      "name": "underlying",
      "outputs": [
        {
          "internalType": "contract IERC20",
          "name": "",
          "type": "address"
        }
      ],
      "stateMutability": "view",
      "type": "function"
    },
    {
      "inputs": [
        {
          "internalType": "address",
          "name": "from",
          "type": "address"
        },
        {
          "internalType": "address",
          "name": "to",
          "type": "address"
        },
        {
          "internalType": "externalEuint64",
          "name": "encryptedAmount",
          "type": "bytes32"
        },
        {
          "internalType": "bytes",
          "name": "inputProof",
          "type": "bytes"
        }
      ],
      "name": "unwrap",
      "outputs": [],
      "stateMutability": "nonpayable",
      "type": "function"
    },
    {
      "inputs": [
        {
          "internalType": "address",
          "name": "from",
          "type": "address"
        },
        {
          "internalType": "address",
          "name": "to",
          "type": "address"
        },
        {
          "internalType": "euint64",
          "name": "amount",
          "type": "bytes32"
        }
      ],
      "name": "unwrap",
      "outputs": [],
      "stateMutability": "nonpayable",
      "type": "function"
    },
    {
      "inputs": [
        {
          "internalType": "address",
          "name": "to",
          "type": "address"
        },
        {
          "internalType": "uint256",
          "name": "amount",
          "type": "uint256"
        }
      ],
      "name": "wrap",
      "outputs": [],
      "stateMutability": "nonpayable",
      "type": "function"
    }
  ],
  "transactionHash": "0x197ce6497f3703823b9639f035640f3257ef729f8fc1f29a945f52f272204cc5",
  "args": [
    "0x1c7D4B196Cb0C7B01d743Fbc6116a902379C7238"
  ],
  "numDeployments": 3,
  "solcInputHash": "c8544193a92e6202ab479214bf711e88",
  "bytecode": "0x60e060405234801561000f575f5ffd5b5060405161313f38038061313f83398101604081905261002e9161042f565b6040805180820182526011815270436f6e666964656e7469616c205553444360781b602080830191909152825180840184526005815264635553444360d81b8183015283519182019093525f8152839290600361008b84826104f4565b50600461009883826104f4565b5060056100a582826104f4565b5050506001600160a01b038216608052505f6100c0826101c3565b9050600660ff82168110156100f35760ff811660a0526100e081836105c2565b6100eb90600a6106c4565b60c052610100565b60ff821660a052600160c0525b5050506101bd61011461028060201b60201c565b80517f9e7b61f58c47dc699ac88507c4f5bb9f121c03808c5676a8078fe583e464970080546001600160a01b03199081166001600160a01b039384161790915560208301517f9e7b61f58c47dc699ac88507c4f5bb9f121c03808c5676a8078fe583e46497018054831691841691909117905560408301517f9e7b61f58c47dc699ac88507c4f5bb9f121c03808c5676a8078fe583e46497028054909216921691909117905550565b50610708565b60408051600481526024810182526020810180516001600160e01b031663313ce56760e01b17905290515f91829182916001600160a01b0386169161020891906106d2565b5f60405180830381855afa9150503d805f8114610240576040519150601f19603f3d011682016040523d82523d5f602084013e610245565b606091505b5091509150818015610258575080516020145b15610279578080602001905181019061027191906106e8565b949350505050565b6012610271565b604080516060810182525f808252602082018190529181019190915246600103610319575060408051606080820183525f8083526020808401829052928401528251908101835273ca2e8f1f656cd25c01f05d0b243ab1ecd4a8ffb6815273d82385dada1ae3e969447f20a3164f6213100e75918101919091527377627828a55156b04ac0dc0eb30467f1a552bb039181019190915290565b4662aa36a703610398575060408051606080820183525f8083526020808401829052928401528251908101835273f0ffdc93b7e186bc2f8cb3daa75d86d1930a433d81527392c920834ec8941d2c77d188936e1f7a6f49c1279181019190915273be0e383937d564d7ff0bc3b46c51f0bf8d5c311a9181019190915290565b46617a6903610416575060408051606080820183525f808352602080840182905292840152825190810183527350157cffd6bbfa2dece204a89ec419c23ef5755d815273e3a9105a3a932253a70f126eb1e3b589c643dd249181019190915273901f8942346f7ab3a01f6d7613119bca447bb0309181019190915290565b6040516373cac13b60e01b815260040160405180910390fd5b5f6020828403121561043f575f5ffd5b81516001600160a01b0381168114610455575f5ffd5b9392505050565b634e487b7160e01b5f52604160045260245ffd5b600181811c9082168061048457607f821691505b6020821081036104a257634e487b7160e01b5f52602260045260245ffd5b50919050565b601f8211156104ef57805f5260205f20601f840160051c810160208510156104cd5750805b601f840160051c820191505b818110156104ec575f81556001016104d9565b50505b505050565b81516001600160401b0381111561050d5761050d61045c565b6105218161051b8454610470565b846104a8565b6020601f821160018114610553575f831561053c5750848201515b5f19600385901b1c1916600184901b1784556104ec565b5f84815260208120601f198516915b828110156105825787850151825560209485019460019092019101610562565b508482101561059f57868401515f19600387901b60f8161c191681555b50505050600190811b01905550565b634e487b7160e01b5f52601160045260245ffd5b60ff82811682821603908111156105db576105db6105ae565b92915050565b6001815b600184111561061c57808504811115610600576106006105ae565b600184161561060e57908102905b60019390931c9280026105e5565b935093915050565b5f82610632575060016105db565b8161063e57505f6105db565b8160018114610654576002811461065e5761067a565b60019150506105db565b60ff84111561066f5761066f6105ae565b50506001821b6105db565b5060208310610133831016604e8410600b841016171561069d575081810a6105db565b6106a95f1984846105e1565b805f19048211156106bc576106bc6105ae565b029392505050565b5f61045560ff841683610624565b5f82518060208501845e5f920191825250919050565b5f602082840312156106f8575f5ffd5b815160ff81168114610455575f5ffd5b60805160a05160c0516129b261078d5f395f8181610237015281816107f50152818161096e01528181610a4301528181610a7401528181610b0701528181610cb501528181610cf5015261102401525f61027501525f8181610350015281816107d0015281816109c901528181610aa601528181610c8f015261104501526129b25ff3fe608060405234801561000f575f5ffd5b50600436106101dc575f3560e01c806388a7ca5c11610109578063d4febb961161009e578063e8a3d4851161006e578063e8a3d48514610461578063e8c15fd414610469578063eb3155b51461047c578063f89d30b11461048f575f5ffd5b8063d4febb9614610415578063d806180614610428578063de6421191461043b578063e064b9bb1461044e575f5ffd5b8063b1af281e116100d9578063b1af281e146103c9578063b6363cf2146103dc578063bf376c7a146103ef578063c7b8a75e14610402575f5ffd5b806388a7ca5c1461037a5780638927b030146103a657806395d89b41146103ae578063a26ef3af146103b6575f5ffd5b806334c457431161017f5780635bebed7e1161014f5780635bebed7e1461030a5780635bf4ef061461031d57806368a9674d146103305780636f307dc314610343575f5ffd5b806334c45743146102c7578063537d3c50146102da57806354095227146102ed5780635bb67a05146102f5575f5ffd5b80632c4e722e116101ba5780632c4e722e146102355780632fb74e621461025b578063313ce5671461026e578063344ff1011461029f575f5ffd5b806301ffc9a7146101e057806306fdde03146102085780632ab4d0521461021d575b5f5ffd5b6101f36101ee3660046122dc565b610497565b60405190151581526020015b60405180910390f35b6102106104cd565b6040516101ff9190612331565b67ffffffffffffffff5b6040519081526020016101ff565b7f0000000000000000000000000000000000000000000000000000000000000000610227565b61022761026936600461239c565b61055d565b60405160ff7f00000000000000000000000000000000000000000000000000000000000000001681526020016101ff565b6102276102ad3660046123f2565b6001600160a01b03165f9081526020819052604090205490565b6102276102d536600461240b565b6105b0565b6102276102e836600461239c565b610659565b600254610227565b6103086103033660046124a4565b6106bb565b005b6102276103183660046124f0565b61087f565b61030861032b366004612518565b6108d1565b6101f361033e366004612582565b610921565b6040516001600160a01b037f00000000000000000000000000000000000000000000000000000000000000001681526020016101ff565b61038d610388366004612518565b6109bd565b6040516001600160e01b031990911681526020016101ff565b610227610ae0565b610210610aee565b6101f36103c43660046124f0565b610afd565b6103086103d73660046124a4565b610b43565b6101f36103ea3660046125bc565b610c38565b6103086103fd3660046124f0565b610c8a565b610227610410366004612518565b610d1e565b6103086104233660046125e4565b610dc1565b610308610436366004612623565b610dd0565b61022761044936600461263a565b610e48565b61022761045c366004612518565b610ea4565b610210610f29565b610308610477366004612582565b610f38565b61022761048a366004612582565b610f82565b610227611021565b5f6001600160e01b031982166312563ca960e21b14806104c757506301ffc9a760e01b6001600160e01b03198316145b92915050565b6060600380546104dc906126c3565b80601f0160208091040260200160405190810160405280929190818152602001828054610508906126c3565b80156105535780601f1061052a57610100808354040283529160200191610553565b820191905f5260205f20905b81548152906001019060200180831161053657829003601f168201915b5050505050905090565b5f6105a733866105a28787878080601f0160208091040260200160405190810160405280939291908181526020018383808284375f920191909152506110d692505050565b61113c565b95945050505050565b5f6105bb8833610c38565b883390916105f457604051630f3e596760e31b81526001600160a01b039283166004820152911660248201526044015b60405180910390fd5b5050610641888861063a8989898080601f0160208091040260200160405190810160405280939291908181526020018383808284375f920191909152506110d692505050565b86866111ba565b905061064d8133611211565b50979650505050505050565b5f6106648433611234565b84339091610697576040516367cfe80560e01b815260048101929092526001600160a01b031660248201526044016105eb565b50506106a633868686866111ba565b90506106b28133611211565b50949350505050565b5f848152600660205260409020546001600160a01b031684816106f4576040516368b187c760e11b81526004016105eb91815260200190565b505f85815260066020526040808220805473ffffffffffffffffffffffffffffffffffffffff19169055805160018082528183019092529081602001602082028036833701905050905085815f81518110610751576107516126fb565b6020026020010181815250505f8560405160200161077f919067ffffffffffffffff91909116815260200190565b60408051601f198184030181526020601f880181900481028401810190925286835292506107cb91849184919089908990819084018382808284375f9201919091525061123f92505050565b6108297f0000000000000000000000000000000000000000000000000000000000000000846108247f000000000000000000000000000000000000000000000000000000000000000067ffffffffffffffff8b16612723565b6112aa565b6040805188815267ffffffffffffffff881660208201526001600160a01b038516917f2d4edf3c2943002120f53dab3f8940043f34799f4a92ab90f2f81f7dd004a49e910160405180910390a250505050505050565b5f61088a8233611234565b823390916108bd576040516367cfe80560e01b815260048101929092526001600160a01b031660248201526044016105eb565b50506108ca33848461113c565b9392505050565b61091a85856109158686868080601f0160208091040260200160405190810160405280939291908181526020018383808284375f920191909152506110d692505050565b6112df565b5050505050565b5f61092c8433610c38565b8433909161096057604051630f3e596760e31b81526001600160a01b039283166004820152911660248201526044016105eb565b50505f6109a461099f6109907f000000000000000000000000000000000000000000000000000000000000000090565b61099a908661274e565b611411565b61144b565b90506109b185858361113c565b50600195945050505050565b5f336001600160a01b037f0000000000000000000000000000000000000000000000000000000000000000168114610a145760405163782c6ffd60e01b81526001600160a01b0390911660048201526024016105eb565b505f60148310610a3057610a288385612761565b60601c610a32565b855b9050610a6d81610a6861099f61099a7f00000000000000000000000000000000000000000000000000000000000000008a61274e565b611461565b505f610a997f0000000000000000000000000000000000000000000000000000000000000000876127ae565b90508015610acc57610acc7f000000000000000000000000000000000000000000000000000000000000000088836112aa565b50632229f29760e21b979650505050505050565b5f610ae96114a2565b905090565b6060600480546104dc906126c3565b5f80610b2b61099f7f0000000000000000000000000000000000000000000000000000000000000000610990565b9050610b3833858361113c565b506001949350505050565b6040805160018082528183019092525f916020808301908036833701905050905084815f81518110610b7757610b776126fb565b6020026020010181815250505f84604051602001610ba5919067ffffffffffffffff91909116815260200190565b60408051601f198184030181526020601f87018190048102840181019092528583529250610bf191849184919088908890819084018382808284375f9201919091525061123f92505050565b60405167ffffffffffffffff8616815286907f83bbbc07896439e5d950a6cead04cbc676180af7a61cecf43f5296475057f5719060200160405180910390a2505050505050565b5f816001600160a01b0316836001600160a01b031614806108ca5750506001600160a01b039182165f90815260016020908152604080832093909416825291909152205465ffffffffffff1642111590565b610ce97f00000000000000000000000000000000000000000000000000000000000000003330610cda7f0000000000000000000000000000000000000000000000000000000000000000866127ae565b610ce490866127c1565b6114d6565b610d1982610a6861099f7f0000000000000000000000000000000000000000000000000000000000000000610990565b505050565b5f610d298433611234565b84339091610d5c576040516367cfe80560e01b815260048101929092526001600160a01b031660248201526044016105eb565b5050610d688633610c38565b86339091610d9c57604051630f3e596760e31b81526001600160a01b039283166004820152911660248201526044016105eb565b5050610dab86868686866111ba565b9050610db78133611211565b5095945050505050565b610dcc338383611512565b5050565b610dda8133611234565b81339091610e0d576040516367cfe80560e01b815260048101929092526001600160a01b031660248201526044016105eb565b5050610e1881611589565b50604051339082907f189c3bfae2e5ce7726b29d57bb6ed0f1a7ebcd153a863ff5ecb6cd998064c98c905f90a350565b5f610e8d338861063a8989898080601f0160208091040260200160405190810160405280939291908181526020018383808284375f920191909152506110d692505050565b9050610e998133611211565b509695505050505050565b5f610eaf8633610c38565b86339091610ee357604051630f3e596760e31b81526001600160a01b039283166004820152911660248201526044016105eb565b5050610dab86866105a28787878080601f0160208091040260200160405190810160405280939291908181526020018383808284375f920191909152506110d692505050565b6060600580546104dc906126c3565b610f428133611234565b81339091610f75576040516367cfe80560e01b815260048101929092526001600160a01b031660248201526044016105eb565b5050610d198383836112df565b5f610f8d8233611234565b82339091610fc0576040516367cfe80560e01b815260048101929092526001600160a01b031660248201526044016105eb565b5050610fcc8433610c38565b8433909161100057604051630f3e596760e31b81526001600160a01b039283166004820152911660248201526044016105eb565b505061100d84848461113c565b90506110198133611211565b509392505050565b5f7f00000000000000000000000000000000000000000000000000000000000000007f00000000000000000000000000000000000000000000000000000000000000006040516370a0823160e01b81523060048201526001600160a01b0391909116906370a0823190602401602060405180830381865afa1580156110a8573d5f5f3e3d5ffd5b505050506040513d601f19601f820116820180604052508101906110cc91906127d4565b610ae9919061274e565b5f81515f146110f2576110eb838360056115a4565b90506104c7565b825f81900361110c576111045f61144b565b9150506104c7565b61111681336116b1565b6110eb57604051630276b5d960e01b8152600481018290523360248201526044016105eb565b5f806001600160a01b0385166111715760405163ee457ebf60e01b81526001600160a01b0390911660048201526024016105eb565b505f6001600160a01b0384166111a657604051638d51880160e01b81526001600160a01b0390911660048201526024016105eb565b506111b2848484611735565b949350505050565b5f5f6111c787878761113c565b90505f6111d8338989858989611757565b90505f6111f8888a6111f3856111ed5f61144b565b8861185b565b611735565b9050611204838261189a565b9998505050505050505050565b5f82611223576112205f61144b565b92505b61122d83836118c8565b5090919050565b5f6108ca83836116b1565b5f61124b84848461193c565b90508061126b5760405163cf6c44e960e01b815260040160405180910390fd5b7fc6366bab028b8d033cb362cfd1f2f3457ef4e92fc738b6788b90d5a7846367a0848460405161129c929190612825565b60405180910390a150505050565b6112b783838360016119e0565b610d1957604051635274afe760e01b81526001600160a01b03841660048201526024016105eb565b816001600160a01b03811661131357604051638d51880160e01b81526001600160a01b0390911660048201526024016105eb565b506001600160a01b03831633148061133057506113308333610c38565b8333909161136457604051630f3e596760e31b81526001600160a01b039283166004820152911660248201526044016105eb565b50505f6113718483611a42565b905061137c81611589565b505f818152600660205260409020546001600160a01b0316156113a1576113a1612849565b5f81815260066020908152604091829020805473ffffffffffffffffffffffffffffffffffffffff19166001600160a01b03871690811790915591518381527f77d02d353c5629272875d11f1b34ec4c65d7430b075575b78cd2502034c469ee910160405180910390a250505050565b5f67ffffffffffffffff82111561144757604080516306dfcc6560e41b81526004810191909152602481018390526044016105eb565b5090565b5f6104c78267ffffffffffffffff166005611a83565b5f806001600160a01b03841661149657604051638d51880160e01b81526001600160a01b0390911660048201526024016105eb565b506108ca5f8484611735565b5f466001036114b15750600190565b4662aa36a7036114c2575061271190565b46617a69036114d157505f1990565b505f90565b6114e4848484846001611b25565b61150c57604051635274afe760e01b81526001600160a01b03851660048201526024016105eb565b50505050565b6001600160a01b038381165f81815260016020908152604080832094871680845294825291829020805465ffffffffffff191665ffffffffffff871690811790915591519182527f921a218a75d18e8ec5704851e6b234a85725b21a2521ce889622c35dedc1fa12910160405180910390a3505050565b5f8161159b576115985f61144b565b91505b61144782611b92565b7f9e7b61f58c47dc699ac88507c4f5bb9f121c03808c5676a8078fe583e46497015460405163045fc19560e11b81525f915f5160206129865f395f51905f52916001600160a01b03909116906308bf832a9061160a90889033908990899060040161287d565b6020604051808303815f875af1158015611626573d5f5f3e3d5ffd5b505050506040513d601f19601f8201168201806040525081019061164a91906127d4565b8154604051630f8e573b60e21b8152600481018390523360248201529193506001600160a01b031690633e395cec906044015f604051808303815f87803b158015611693575f5ffd5b505af11580156116a5573d5f5f3e3d5ffd5b50505050509392505050565b5f805f5160206129865f395f51905f5280546040516382027b6d60e01b8152600481018790526001600160a01b0386811660248301529293509116906382027b6d90604401602060405180830381865afa158015611711573d5f5f3e3d5ffd5b505050506040513d601f19601f820116820180604052508101906111b291906128b3565b5f6001600160a01b03841661174c5761174c611c10565b6111b2848484611c42565b5f6001600160a01b0385163b15611844576040516346083bfd60e01b81526001600160a01b038616906346083bfd9061179c908a908a908990899089906004016128d2565b6020604051808303815f875af19250505080156117d6575060408051601f3d908101601f191682019092526117d3918101906127d4565b60015b61183d573d808015611803576040519150601f19603f3d011682016040523d82523d5f602084013e611808565b606091505b5080515f0361183557604051638d51880160e01b81526001600160a01b03871660048201526024016105eb565b805181602001fd5b9050611851565b61184e6001611e1f565b90505b9695505050505050565b5f8361186d5761186a5f611e1f565b93505b8261187e5761187b5f61144b565b92505b8161188f5761188c5f61144b565b91505b6111b2848484611e3a565b5f826118ac576118a95f61144b565b92505b816118bd576118ba5f61144b565b91505b6108ca83835f611ec7565b5f5160206129865f395f51905f528054604051630f8e573b60e21b8152600481018590526001600160a01b03848116602483015290911690633e395cec906044015b5f604051808303815f87803b158015611921575f5ffd5b505af1158015611933573d5f5f3e3d5ffd5b50505050505050565b7f9e7b61f58c47dc699ac88507c4f5bb9f121c03808c5676a8078fe583e4649702546040516378542ead60e01b81525f915f5160206129865f395f51905f52916001600160a01b03909116906378542ead906119a090889088908890600401612927565b6020604051808303815f875af11580156119bc573d5f5f3e3d5ffd5b505050506040513d601f19601f820116820180604052508101906105a791906128b3565b60405163a9059cbb60e01b5f8181526001600160a01b038616600452602485905291602083604481808b5af1925060015f51148316611a36578383151615611a2a573d5f823e3d81fd5b5f873b113d1516831692505b60405250949350505050565b5f806001600160a01b038416611a775760405163ee457ebf60e01b81526001600160a01b0390911660048201526024016105eb565b506108ca835f84611735565b7f9e7b61f58c47dc699ac88507c4f5bb9f121c03808c5676a8078fe583e464970154604051639cd07acb60e01b81525f915f5160206129865f395f51905f52916001600160a01b0390911690639cd07acb90611ae5908790879060040161295f565b6020604051808303815f875af1158015611b01573d5f5f3e3d5ffd5b505050506040513d601f19601f820116820180604052508101906111b291906127d4565b6040516323b872dd60e01b5f8181526001600160a01b038781166004528616602452604485905291602083606481808c5af1925060015f51148316611b81578383151615611b75573d5f823e3d81fd5b5f883b113d1516831692505b604052505f60605295945050505050565b6040805160018082528183019092525f5160206129865f395f51905f52915f91906020808301908036833701905050905082815f81518110611bd657611bd66126fb565b60209081029190910101528154604051637d6e912360e11b81526001600160a01b039091169063fadd22469061190a908490600401612973565b67ffffffffffffffff611c21611021565b1115611c405760405163a9e53fc360e01b815260040160405180910390fd5b565b5f80806001600160a01b038616611c7857611c5f60025485611f8d565b9092509050611c6d81611fd7565b506002819055611cfc565b6001600160a01b0386165f908152602081905260409020548681611cbb576040516317fe473760e21b81526001600160a01b0390911660048201526024016105eb565b50611cc68186611ff3565b9093509150611cd482611fd7565b50611cdf8288612058565b50506001600160a01b0386165f9081526020819052604090208190555b611d0f8285611d0a5f61144b565b61185b565b92506001600160a01b038516611d4157611d2b6002548461189a565b9050611d3681611fd7565b506002819055611d95565b6001600160a01b0385165f90815260208190526040902054611d639084612074565b9050611d6e81611fd7565b50611d798186612058565b506001600160a01b0385165f9081526020819052604090208190555b6001600160a01b03861615611db057611dae8387612058565b505b6001600160a01b03851615611dcb57611dc98386612058565b505b611dd483611fd7565b5082856001600160a01b0316876001600160a01b03167f67500e8d0ed826d2194f514dd0d8124f35648ab6e3fb5e6ed867134cffe661e960405160405180910390a450509392505050565b5f6104c782611e2e575f611e31565b60015b60ff165f611a83565b5f805f5160206129865f395f51905f526001810154604051637702dcff60e01b81526004810188905260248101879052604481018690529192506001600160a01b031690637702dcff906064016020604051808303815f875af1158015611ea3573d5f5f3e3d5ffd5b505050506040513d601f19601f820116820180604052508101906105a791906127d4565b5f5f8215611eda5750600160f81b611edd565b505f5b7f9e7b61f58c47dc699ac88507c4f5bb9f121c03808c5676a8078fe583e4649701546040516303056db360e31b815260048101879052602481018690526001600160f81b0319831660448201525f5160206129865f395f51905f52916001600160a01b03169063182b6d98906064015b6020604051808303815f875af1158015611f69573d5f5f3e3d5ffd5b505050506040513d601f19601f8201168201806040525081019061185191906127d4565b5f8083611fa857611f9e6001611e1f565b8391509150611fd0565b5f611fb38585612074565b9050611fbf81866120a2565b9250611fcc83828761185b565b9150505b9250929050565b5f81611fe957611fe65f61144b565b91505b61144782306120d0565b5f808361202f5782612013576120096001611e1f565b8491509150611fd0565b61201d835f612116565b6120265f61144b565b91509150611fd0565b61203984846120a2565b915061204f82612049868661189a565b8661185b565b90509250929050565b5f8261206a576120675f61144b565b92505b61122d83836120d0565b5f82612086576120835f61144b565b92505b81612097576120945f61144b565b91505b6108ca83835f61213e565b5f826120b4576120b15f61144b565b92505b816120c5576120c25f61144b565b91505b6108ca83835f6121c8565b5f5160206129865f395f51905f528054604051635ca4b5b160e11b8152600481018590526001600160a01b0384811660248301529091169063b9496b629060440161190a565b5f82612128576121255f61144b565b92505b6108ca8367ffffffffffffffff84166001612252565b5f5f82156121515750600160f81b612154565b505f5b7f9e7b61f58c47dc699ac88507c4f5bb9f121c03808c5676a8078fe583e46497015460405163022f65e760e31b815260048101879052602481018690526001600160f81b0319831660448201525f5160206129865f395f51905f52916001600160a01b03169063117b2f3890606401611f4d565b5f5f82156121db5750600160f81b6121de565b505f5b7f9e7b61f58c47dc699ac88507c4f5bb9f121c03808c5676a8078fe583e464970154604051631391547f60e01b815260048101879052602481018690526001600160f81b0319831660448201525f5160206129865f395f51905f52916001600160a01b031690631391547f90606401611f4d565b5f5f82156122655750600160f81b612268565b505f5b7f9e7b61f58c47dc699ac88507c4f5bb9f121c03808c5676a8078fe583e46497015460405163f77f3f1d60e01b815260048101879052602481018690526001600160f81b0319831660448201525f5160206129865f395f51905f52916001600160a01b03169063f77f3f1d90606401611f4d565b5f602082840312156122ec575f5ffd5b81356001600160e01b0319811681146108ca575f5ffd5b5f81518084528060208401602086015e5f602082860101526020601f19601f83011685010191505092915050565b602081525f6108ca6020830184612303565b80356001600160a01b0381168114612359575f5ffd5b919050565b5f5f83601f84011261236e575f5ffd5b50813567ffffffffffffffff811115612385575f5ffd5b602083019150836020828501011115611fd0575f5ffd5b5f5f5f5f606085870312156123af575f5ffd5b6123b885612343565b935060208501359250604085013567ffffffffffffffff8111156123da575f5ffd5b6123e68782880161235e565b95989497509550505050565b5f60208284031215612402575f5ffd5b6108ca82612343565b5f5f5f5f5f5f5f60a0888a031215612421575f5ffd5b61242a88612343565b965061243860208901612343565b955060408801359450606088013567ffffffffffffffff81111561245a575f5ffd5b6124668a828b0161235e565b909550935050608088013567ffffffffffffffff811115612485575f5ffd5b6124918a828b0161235e565b989b979a50959850939692959293505050565b5f5f5f5f606085870312156124b7575f5ffd5b84359350602085013567ffffffffffffffff811681146124d5575f5ffd5b9250604085013567ffffffffffffffff8111156123da575f5ffd5b5f5f60408385031215612501575f5ffd5b61250a83612343565b946020939093013593505050565b5f5f5f5f5f6080868803121561252c575f5ffd5b61253586612343565b945061254360208701612343565b935060408601359250606086013567ffffffffffffffff811115612565575f5ffd5b6125718882890161235e565b969995985093965092949392505050565b5f5f5f60608486031215612594575f5ffd5b61259d84612343565b92506125ab60208501612343565b929592945050506040919091013590565b5f5f604083850312156125cd575f5ffd5b6125d683612343565b915061204f60208401612343565b5f5f604083850312156125f5575f5ffd5b6125fe83612343565b9150602083013565ffffffffffff81168114612618575f5ffd5b809150509250929050565b5f60208284031215612633575f5ffd5b5035919050565b5f5f5f5f5f5f6080878903121561264f575f5ffd5b61265887612343565b955060208701359450604087013567ffffffffffffffff81111561267a575f5ffd5b61268689828a0161235e565b909550935050606087013567ffffffffffffffff8111156126a5575f5ffd5b6126b189828a0161235e565b979a9699509497509295939492505050565b600181811c908216806126d757607f821691505b6020821081036126f557634e487b7160e01b5f52602260045260245ffd5b50919050565b634e487b7160e01b5f52603260045260245ffd5b634e487b7160e01b5f52601160045260245ffd5b80820281158282048414176104c7576104c761270f565b634e487b7160e01b5f52601260045260245ffd5b5f8261275c5761275c61273a565b500490565b80356bffffffffffffffffffffffff1981169060148410156127a7576bffffffffffffffffffffffff196bffffffffffffffffffffffff198560140360031b1b82161691505b5092915050565b5f826127bc576127bc61273a565b500690565b818103818111156104c7576104c761270f565b5f602082840312156127e4575f5ffd5b5051919050565b5f8151808452602084019350602083015f5b8281101561281b5781518652602095860195909101906001016127fd565b5093949350505050565b604081525f61283760408301856127eb565b82810360208401526105a78185612303565b634e487b7160e01b5f52600160045260245ffd5b6054811061287957634e487b7160e01b5f52602160045260245ffd5b9052565b8481526001600160a01b0384166020820152608060408201525f6128a46080830185612303565b90506105a7606083018461285d565b5f602082840312156128c3575f5ffd5b815180151581146108ca575f5ffd5b6001600160a01b03861681526001600160a01b038516602082015283604082015260806060820152816080820152818360a08301375f81830160a090810191909152601f909201601f19160101949350505050565b606081525f61293960608301866127eb565b828103602084015261294b8186612303565b905082810360408401526118518185612303565b828152604081016108ca602083018461285d565b602081525f6108ca60208301846127eb56fe9e7b61f58c47dc699ac88507c4f5bb9f121c03808c5676a8078fe583e4649700a164736f6c634300081b000a",
  "devdoc": {
    "errors": {
      "ERC7984InvalidGatewayRequest(uint256)": [
        {
          "details": "The given gateway request ID `requestId` is invalid."
        }
      ],
      "ERC7984InvalidReceiver(address)": [
        {
          "details": "The given receiver `receiver` is invalid for transfers."
        }
      ],
      "ERC7984InvalidSender(address)": [
        {
          "details": "The given sender `sender` is invalid for transfers."
        }
      ],
      "ERC7984UnauthorizedCaller(address)": [
        {
          "details": "The given caller `caller` is not authorized for the current operation."
        }
      ],
      "ERC7984UnauthorizedSpender(address,address)": [
        {
          "details": "The given holder `holder` is not authorized to spend on behalf of `spender`."
        }
      ],
      "ERC7984UnauthorizedUseOfEncryptedAmount(bytes32,address)": [
        {
          "details": "The caller `user` does not have access to the encrypted amount `amount`. NOTE: Try using the equivalent transfer function with an input proof."
        }
      ],
      "ERC7984ZeroBalance(address)": [
        {
          "details": "The holder `holder` is trying to send tokens but has a balance of 0."
        }
      ],
      "SafeCastOverflowedUintDowncast(uint8,uint256)": [
        {
          "details": "Value doesn't fit in a uint of `bits` size."
        }
      ],
      "SafeERC20FailedOperation(address)": [
        {
          "details": "An operation with an ERC-20 token failed."
        }
      ]
    },
    "events": {
      "AmountDiscloseRequested(bytes32,address)": {
        "details": "Emitted when an encrypted amount `encryptedAmount` is requested for disclosure by `requester`."
      },
      "AmountDisclosed(bytes32,uint64)": {
        "details": "Emitted when an encrypted amount is disclosed. Accounts with access to the encrypted amount `encryptedAmount` that is also accessible to this contract should be able to disclose the amount. This functionality is implementation specific."
      },
      "ConfidentialTransfer(address,address,bytes32)": {
        "details": "Emitted when a confidential transfer is made from `from` to `to` of encrypted amount `amount`."
      },
      "OperatorSet(address,address,uint48)": {
        "details": "Emitted when the expiration timestamp for an operator `operator` is updated for a given `holder`. The operator may move any amount of tokens on behalf of the holder until the timestamp `until`."
      }
    },
    "kind": "dev",
    "methods": {
      "confidentialBalanceOf(address)": {
        "details": "Returns the confidential balance of the account `account`."
      },
      "confidentialTotalSupply()": {
        "details": "Returns the confidential total supply of the token."
      },
      "confidentialTransfer(address,bytes32)": {
        "details": "Similar to {confidentialTransfer-address-externalEuint64-bytes} but without an input proof. The caller *must* already be allowed by ACL for the given `amount`."
      },
      "confidentialTransfer(address,bytes32,bytes)": {
        "details": "Transfers the encrypted amount `encryptedAmount` to `to` with the given input proof `inputProof`. Returns the encrypted amount that was actually transferred."
      },
      "confidentialTransferAndCall(address,bytes32,bytes)": {
        "details": "Similar to {confidentialTransfer-address-euint64} but with a callback to `to` after the transfer."
      },
      "confidentialTransferAndCall(address,bytes32,bytes,bytes)": {
        "details": "Similar to {confidentialTransfer-address-externalEuint64-bytes} but with a callback to `to` after the transfer. The callback is made to the {IERC7984Receiver-onConfidentialTransferReceived} function on the to address with the actual transferred amount (may differ from the given `encryptedAmount`) and the given data `data`."
      },
      "confidentialTransferFrom(address,address,bytes32)": {
        "details": "Similar to {confidentialTransferFrom-address-address-externalEuint64-bytes} but without an input proof. The caller *must* be already allowed by ACL for the given `amount`."
      },
      "confidentialTransferFrom(address,address,bytes32,bytes)": {
        "details": "Transfers the encrypted amount `encryptedAmount` from `from` to `to` with the given input proof `inputProof`. `msg.sender` must be either `from` or an operator for `from`. Returns the encrypted amount that was actually transferred."
      },
      "confidentialTransferFromAndCall(address,address,bytes32,bytes)": {
        "details": "Similar to {confidentialTransferFrom-address-address-euint64} but with a callback to `to` after the transfer."
      },
      "confidentialTransferFromAndCall(address,address,bytes32,bytes,bytes)": {
        "details": "Similar to {confidentialTransferFrom-address-address-externalEuint64-bytes} but with a callback to `to` after the transfer."
      },
      "contractURI()": {
        "details": "Returns the contract URI. See https://eips.ethereum.org/EIPS/eip-7572[ERC-7572] for details."
      },
      "decimals()": {
        "details": "Returns the number of decimals of the token. Recommended to be 6."
      },
      "depositFrom(address,address,uint256)": {
        "details": "Caller must be an operator for `from` via setOperator().      Internally converts the plaintext amount to euint64 and calls _transfer.",
        "params": {
          "amount": "The plaintext amount to transfer",
          "from": "The address to debit",
          "to": "The address to credit"
        }
      },
      "depositTransfer(address,uint256)": {
        "details": "Caller must hold the tokens (msg.sender is `from`).",
        "params": {
          "amount": "The plaintext amount to transfer",
          "to": "The address to credit"
        }
      },
      "discloseEncryptedAmount(bytes32,uint64,bytes)": {
        "details": "Publicly discloses an encrypted value with a given decryption proof. Emits the {AmountDisclosed} event. NOTE: May not be tied to a prior request via {requestDiscloseEncryptedAmount}."
      },
      "finalizeUnwrap(bytes32,uint64,bytes)": {
        "details": "Fills an unwrap request for a given cipher-text `burntAmount` with the `cleartextAmount` and `decryptionProof`."
      },
      "inferredTotalSupply()": {
        "details": "Returns the underlying balance divided by the {rate}, a value greater or equal to the actual {confidentialTotalSupply}. NOTE: The return value of this function can be inflated by directly sending underlying tokens to the wrapper contract. Reductions will lag compared to {confidentialTotalSupply} since it is updated on {unwrap} while this function updates on {finalizeUnwrap}."
      },
      "isOperator(address,address)": {
        "details": "Returns true if `spender` is currently an operator for `holder`."
      },
      "maxTotalSupply()": {
        "details": "Returns the maximum total supply of wrapped tokens supported by the encrypted datatype."
      },
      "name()": {
        "details": "Returns the name of the token."
      },
      "onTransferReceived(address,address,uint256,bytes)": {
        "details": "`ERC1363` callback function which wraps tokens to the address specified in `data` or the address `from` (if no address is specified in `data`). This function refunds any excess tokens sent beyond the nearest multiple of {rate} to `from`. See {wrap} from more details on wrapping tokens."
      },
      "rate()": {
        "details": "Returns the rate at which the underlying token is converted to the wrapped token. For example, if the `rate` is 1000, then 1000 units of the underlying token equal 1 unit of the wrapped token."
      },
      "requestDiscloseEncryptedAmount(bytes32)": {
        "details": "Starts the process to disclose an encrypted amount `encryptedAmount` publicly by making it publicly decryptable. Emits the {AmountDiscloseRequested} event. NOTE: Both `msg.sender` and `address(this)` must have permission to access the encrypted amount `encryptedAmount` to request disclosure of the encrypted amount `encryptedAmount`."
      },
      "setOperator(address,uint48)": {
        "details": "Sets `operator` as an operator for `holder` until the timestamp `until`. NOTE: An operator may transfer any amount of tokens on behalf of a holder while approved."
      },
      "supportsInterface(bytes4)": {
        "details": "Returns true if this contract implements the interface defined by `interfaceId`. See the corresponding https://eips.ethereum.org/EIPS/eip-165#how-interfaces-are-identified[ERC section] to learn more about how these ids are created. This function call must use less than 30 000 gas."
      },
      "symbol()": {
        "details": "Returns the symbol of the token."
      },
      "underlying()": {
        "details": "Returns the address of the underlying ERC-20 token that is being wrapped."
      },
      "unwrap(address,address,bytes32)": {
        "details": "Unwraps tokens from `from` and sends the underlying tokens to `to`. The caller must be `from` or be an approved operator for `from`. `amount * rate()` underlying tokens are sent to `to`. NOTE: The unwrap request created by this function must be finalized by calling {finalizeUnwrap}. NOTE: The caller *must* already be approved by ACL for the given `amount`."
      },
      "unwrap(address,address,bytes32,bytes)": {
        "details": "Variant of {unwrap} that passes an `inputProof` which approves the caller for the `encryptedAmount` in the ACL."
      },
      "wrap(address,uint256)": {
        "details": "Wraps amount `amount` of the underlying token into a confidential token and sends it to `to`. Tokens are exchanged at a fixed rate specified by {rate} such that `amount / rate()` confidential tokens are sent. Amount transferred in is rounded down to the nearest multiple of {rate}."
      }
    },
    "title": "ConfidentialUSDC - Wrapped USDC with encrypted balances (ERC7984)",
    "version": 1
  },
  "userdoc": {
    "errors": {
      "InvalidKMSSignatures()": [
        {
          "notice": "Returned if the returned KMS signatures are not valid."
        }
      ],
      "SenderNotAllowedToUseHandle(bytes32,address)": [
        {
          "notice": "Returned if the sender is not allowed to use the handle."
        }
      ],
      "ZamaProtocolUnsupported()": [
        {
          "notice": "Returned if the Zama protocol is not supported on the current chain"
        }
      ]
    },
    "events": {
      "PublicDecryptionVerified(bytes32[],bytes)": {
        "notice": "This event is emitted when public decryption has been successfully verified."
      }
    },
    "kind": "user",
    "methods": {
      "depositFrom(address,address,uint256)": {
        "notice": "Plaintext deposit helper for OTC backward compatibility.         Allows an operator (e.g. the OTC contract) to pull plaintext-amount tokens         from `from` and credit encrypted balance to `to`."
      },
      "depositTransfer(address,uint256)": {
        "notice": "Plaintext transfer helper for OTC backward compatibility (refunds, etc.).         Allows the contract itself to push tokens using a plaintext amount."
      }
    },
    "notice": "Converts standard USDC (ERC20) into confidential cUSDC using OpenZeppelin's ERC7984ERC20Wrapper.         Inherits wrap(), unwrap(), finalizeUnwrap(), confidentialTransfer, confidentialTransferFrom,         confidentialBalanceOf, setOperator, isOperator, and all other ERC7984 standard functions.",
    "version": 1
  },
  "storageLayout": {
    "storage": [
      {
        "astId": 42421,
        "contract": "contracts/ConfidentialUSDC.sol:ConfidentialUSDC",
        "label": "_balances",
        "offset": 0,
        "slot": "0",
        "type": "t_mapping(t_address,t_userDefinedValueType(euint64)50304)"
      },
      {
        "astId": 42427,
        "contract": "contracts/ConfidentialUSDC.sol:ConfidentialUSDC",
        "label": "_operators",
        "offset": 0,
        "slot": "1",
        "type": "t_mapping(t_address,t_mapping(t_address,t_uint48))"
      },
      {
        "astId": 42430,
        "contract": "contracts/ConfidentialUSDC.sol:ConfidentialUSDC",
        "label": "_totalSupply",
        "offset": 0,
        "slot": "2",
        "type": "t_userDefinedValueType(euint64)50304"
      },
      {
        "astId": 42432,
        "contract": "contracts/ConfidentialUSDC.sol:ConfidentialUSDC",
        "label": "_name",
        "offset": 0,
        "slot": "3",
        "type": "t_string_storage"
      },
      {
        "astId": 42434,
        "contract": "contracts/ConfidentialUSDC.sol:ConfidentialUSDC",
        "label": "_symbol",
        "offset": 0,
        "slot": "4",
        "type": "t_string_storage"
      },
      {
        "astId": 42436,
        "contract": "contracts/ConfidentialUSDC.sol:ConfidentialUSDC",
        "label": "_contractURI",
        "offset": 0,
        "slot": "5",
        "type": "t_string_storage"
      },
      {
        "astId": 43534,
        "contract": "contracts/ConfidentialUSDC.sol:ConfidentialUSDC",
        "label": "_unwrapRequests",
        "offset": 0,
        "slot": "6",
        "type": "t_mapping(t_userDefinedValueType(euint64)50304,t_address)"
      }
    ],
    "types": {
      "t_address": {
        "encoding": "inplace",
        "label": "address",
        "numberOfBytes": "20"
      },
      "t_mapping(t_address,t_mapping(t_address,t_uint48))": {
        "encoding": "mapping",
        "key": "t_address",
        "label": "mapping(address => mapping(address => uint48))",
        "numberOfBytes": "32",
        "value": "t_mapping(t_address,t_uint48)"
      },
      "t_mapping(t_address,t_uint48)": {
        "encoding": "mapping",
        "key": "t_address",
        "label": "mapping(address => uint48)",
        "numberOfBytes": "32",
        "value": "t_uint48"
      },
      "t_mapping(t_address,t_userDefinedValueType(euint64)50304)": {
        "encoding": "mapping",
        "key": "t_address",
        "label": "mapping(address => euint64)",
        "numberOfBytes": "32",
        "value": "t_userDefinedValueType(euint64)50304"
      },
      "t_mapping(t_userDefinedValueType(euint64)50304,t_address)": {
        "encoding": "mapping",
        "key": "t_userDefinedValueType(euint64)50304",
        "label": "mapping(euint64 => address)",
        "numberOfBytes": "32",
        "value": "t_address"
      },
      "t_string_storage": {
        "encoding": "bytes",
        "label": "string",
        "numberOfBytes": "32"
      },
      "t_uint48": {
        "encoding": "inplace",
        "label": "uint48",
        "numberOfBytes": "6"
      },
      "t_userDefinedValueType(euint64)50304": {
        "encoding": "inplace",
        "label": "euint64",
        "numberOfBytes": "32"
      }
    }
  }
}