{
  "address": "0x6Bbef818C3aE30a4375EEa36A2eDf5fF37Ad7F9b",
  "abi": [
    {
      "inputs": [],
      "stateMutability": "nonpayable",
      "type": "constructor"
    },
    {
      "inputs": [
        {
          "internalType": "uint256",
          "name": "requestId",
          "type": "uint256"
        }
      ],
      "name": "ERC7984InvalidGatewayRequest",
      "type": "error"
    },
    {
      "inputs": [
        {
          "internalType": "address",
          "name": "receiver",
          "type": "address"
        }
      ],
      "name": "ERC7984InvalidReceiver",
      "type": "error"
    },
    {
      "inputs": [
        {
          "internalType": "address",
          "name": "sender",
          "type": "address"
        }
      ],
      "name": "ERC7984InvalidSender",
      "type": "error"
    },
    {
      "inputs": [
        {
          "internalType": "address",
          "name": "caller",
          "type": "address"
        }
      ],
      "name": "ERC7984UnauthorizedCaller",
      "type": "error"
    },
    {
      "inputs": [
        {
          "internalType": "address",
          "name": "holder",
          "type": "address"
        },
        {
          "internalType": "address",
          "name": "spender",
          "type": "address"
        }
      ],
      "name": "ERC7984UnauthorizedSpender",
      "type": "error"
    },
    {
      "inputs": [
        {
          "internalType": "euint64",
          "name": "amount",
          "type": "bytes32"
        },
        {
          "internalType": "address",
          "name": "user",
          "type": "address"
        }
      ],
      "name": "ERC7984UnauthorizedUseOfEncryptedAmount",
      "type": "error"
    },
    {
      "inputs": [
        {
          "internalType": "address",
          "name": "holder",
          "type": "address"
        }
      ],
      "name": "ERC7984ZeroBalance",
      "type": "error"
    },
    {
      "inputs": [],
      "name": "InvalidKMSSignatures",
      "type": "error"
    },
    {
      "inputs": [
        {
          "internalType": "euint64",
          "name": "amount",
          "type": "bytes32"
        }
      ],
      "name": "InvalidUnwrapRequest",
      "type": "error"
    },
    {
      "inputs": [
        {
          "internalType": "uint8",
          "name": "bits",
          "type": "uint8"
        },
        {
          "internalType": "uint256",
          "name": "value",
          "type": "uint256"
        }
      ],
      "name": "SafeCastOverflowedUintDowncast",
      "type": "error"
    },
    {
      "inputs": [
        {
          "internalType": "bytes32",
          "name": "handle",
          "type": "bytes32"
        },
        {
          "internalType": "address",
          "name": "sender",
          "type": "address"
        }
      ],
      "name": "SenderNotAllowedToUseHandle",
      "type": "error"
    },
    {
      "inputs": [],
      "name": "ZamaProtocolUnsupported",
      "type": "error"
    },
    {
      "anonymous": false,
      "inputs": [
        {
          "indexed": true,
          "internalType": "euint64",
          "name": "encryptedAmount",
          "type": "bytes32"
        },
        {
          "indexed": true,
          "internalType": "address",
          "name": "requester",
          "type": "address"
        }
      ],
      "name": "AmountDiscloseRequested",
      "type": "event"
    },
    {
      "anonymous": false,
      "inputs": [
        {
          "indexed": true,
          "internalType": "euint64",
          "name": "encryptedAmount",
          "type": "bytes32"
        },
        {
          "indexed": false,
          "internalType": "uint64",
          "name": "amount",
          "type": "uint64"
        }
      ],
      "name": "AmountDisclosed",
      "type": "event"
    },
    {
      "anonymous": false,
      "inputs": [
        {
          "indexed": true,
          "internalType": "address",
          "name": "from",
          "type": "address"
        },
        {
          "indexed": true,
          "internalType": "address",
          "name": "to",
          "type": "address"
        },
        {
          "indexed": true,
          "internalType": "euint64",
          "name": "amount",
          "type": "bytes32"
        }
      ],
      "name": "ConfidentialTransfer",
      "type": "event"
    },
    {
      "anonymous": false,
      "inputs": [
        {
          "indexed": true,
          "internalType": "address",
          "name": "holder",
          "type": "address"
        },
        {
          "indexed": true,
          "internalType": "address",
          "name": "operator",
          "type": "address"
        },
        {
          "indexed": false,
          "internalType": "uint48",
          "name": "until",
          "type": "uint48"
        }
      ],
      "name": "OperatorSet",
      "type": "event"
    },
    {
      "anonymous": false,
      "inputs": [
        {
          "indexed": false,
          "internalType": "bytes32[]",
          "name": "handlesList",
          "type": "bytes32[]"
        },
        {
          "indexed": false,
          "internalType": "bytes",
          "name": "abiEncodedCleartexts",
          "type": "bytes"
        }
      ],
      "name": "PublicDecryptionVerified",
      "type": "event"
    },
    {
      "anonymous": false,
      "inputs": [
        {
          "indexed": true,
          "internalType": "address",
          "name": "receiver",
          "type": "address"
        },
        {
          "indexed": false,
          "internalType": "euint64",
          "name": "encryptedAmount",
          "type": "bytes32"
        },
        {
          "indexed": false,
          "internalType": "uint64",
          "name": "cleartextAmount",
          "type": "uint64"
        }
      ],
      "name": "UnwrapFinalized",
      "type": "event"
    },
    {
      "anonymous": false,
      "inputs": [
        {
          "indexed": true,
          "internalType": "address",
          "name": "receiver",
          "type": "address"
        },
        {
          "indexed": false,
          "internalType": "euint64",
          "name": "amount",
          "type": "bytes32"
        }
      ],
      "name": "UnwrapRequested",
      "type": "event"
    },
    {
      "anonymous": false,
      "inputs": [
        {
          "indexed": true,
          "internalType": "address",
          "name": "user",
          "type": "address"
        },
        {
          "indexed": false,
          "internalType": "uint256",
          "name": "amount",
          "type": "uint256"
        }
      ],
      "name": "Wrap",
      "type": "event"
    },
    {
      "inputs": [
        {
          "internalType": "address",
          "name": "account",
          "type": "address"
        }
      ],
      "name": "confidentialBalanceOf",
      "outputs": [
        {
          "internalType": "euint64",
          "name": "",
          "type": "bytes32"
        }
      ],
      "stateMutability": "view",
      "type": "function"
    },
    {
      "inputs": [],
      "name": "confidentialProtocolId",
      "outputs": [
        {
          "internalType": "uint256",
          "name": "",
          "type": "uint256"
        }
      ],
      "stateMutability": "view",
      "type": "function"
    },
    {
      "inputs": [],
      "name": "confidentialTotalSupply",
      "outputs": [
        {
          "internalType": "euint64",
          "name": "",
          "type": "bytes32"
        }
      ],
      "stateMutability": "view",
      "type": "function"
    },
    {
      "inputs": [
        {
          "internalType": "address",
          "name": "to",
          "type": "address"
        },
        {
          "internalType": "externalEuint64",
          "name": "encryptedAmount",
          "type": "bytes32"
        },
        {
          "internalType": "bytes",
          "name": "inputProof",
          "type": "bytes"
        }
      ],
      "name": "confidentialTransfer",
      "outputs": [
        {
          "internalType": "euint64",
          "name": "",
          "type": "bytes32"
        }
      ],
      "stateMutability": "nonpayable",
      "type": "function"
    },
    {
      "inputs": [
        {
          "internalType": "address",
          "name": "to",
          "type": "address"
        },
        {
          "internalType": "euint64",
          "name": "amount",
          "type": "bytes32"
        }
      ],
      "name": "confidentialTransfer",
      "outputs": [
        {
          "internalType": "euint64",
          "name": "",
          "type": "bytes32"
        }
      ],
      "stateMutability": "nonpayable",
      "type": "function"
    },
    {
      "inputs": [
        {
          "internalType": "address",
          "name": "to",
          "type": "address"
        },
        {
          "internalType": "euint64",
          "name": "amount",
          "type": "bytes32"
        },
        {
          "internalType": "bytes",
          "name": "data",
          "type": "bytes"
        }
      ],
      "name": "confidentialTransferAndCall",
      "outputs": [
        {
          "internalType": "euint64",
          "name": "transferred",
          "type": "bytes32"
        }
      ],
      "stateMutability": "nonpayable",
      "type": "function"
    },
    {
      "inputs": [
        {
          "internalType": "address",
          "name": "to",
          "type": "address"
        },
        {
          "internalType": "externalEuint64",
          "name": "encryptedAmount",
          "type": "bytes32"
        },
        {
          "internalType": "bytes",
          "name": "inputProof",
          "type": "bytes"
        },
        {
          "internalType": "bytes",
          "name": "data",
          "type": "bytes"
        }
      ],
      "name": "confidentialTransferAndCall",
      "outputs": [
        {
          "internalType": "euint64",
          "name": "transferred",
          "type": "bytes32"
        }
      ],
      "stateMutability": "nonpayable",
      "type": "function"
    },
    {
      "inputs": [
        {
          "internalType": "address",
          "name": "from",
          "type": "address"
        },
        {
          "internalType": "address",
          "name": "to",
          "type": "address"
        },
        {
          "internalType": "externalEuint64",
          "name": "encryptedAmount",
          "type": "bytes32"
        },
        {
          "internalType": "bytes",
          "name": "inputProof",
          "type": "bytes"
        }
      ],
      "name": "confidentialTransferFrom",
      "outputs": [
        {
          "internalType": "euint64",
          "name": "transferred",
          "type": "bytes32"
        }
      ],
      "stateMutability": "nonpayable",
      "type": "function"
    },
    {
      "inputs": [
        {
          "internalType": "address",
          "name": "from",
          "type": "address"
        },
        {
          "internalType": "address",
          "name": "to",
          "type": "address"
        },
        {
          "internalType": "euint64",
          "name": "amount",
          "type": "bytes32"
        }
      ],
      "name": "confidentialTransferFrom",
      "outputs": [
        {
          "internalType": "euint64",
          "name": "transferred",
          "type": "bytes32"
        }
      ],
      "stateMutability": "nonpayable",
      "type": "function"
    },
    {
      "inputs": [
        {
          "internalType": "address",
          "name": "from",
          "type": "address"
        },
        {
          "internalType": "address",
          "name": "to",
          "type": "address"
        },
        {
          "internalType": "externalEuint64",
          "name": "encryptedAmount",
          "type": "bytes32"
        },
        {
          "internalType": "bytes",
          "name": "inputProof",
          "type": "bytes"
        },
        {
          "internalType": "bytes",
          "name": "data",
          "type": "bytes"
        }
      ],
      "name": "confidentialTransferFromAndCall",
      "outputs": [
        {
          "internalType": "euint64",
          "name": "transferred",
          "type": "bytes32"
        }
      ],
      "stateMutability": "nonpayable",
      "type": "function"
    },
    {
      "inputs": [
        {
          "internalType": "address",
          "name": "from",
          "type": "address"
        },
        {
          "internalType": "address",
          "name": "to",
          "type": "address"
        },
        {
          "internalType": "euint64",
          "name": "amount",
          "type": "bytes32"
        },
        {
          "internalType": "bytes",
          "name": "data",
          "type": "bytes"
        }
      ],
      "name": "confidentialTransferFromAndCall",
      "outputs": [
        {
          "internalType": "euint64",
          "name": "transferred",
          "type": "bytes32"
        }
      ],
      "stateMutability": "nonpayable",
      "type": "function"
    },
    {
      "inputs": [],
      "name": "contractURI",
      "outputs": [
        {
          "internalType": "string",
          "name": "",
          "type": "string"
        }
      ],
      "stateMutability": "view",
      "type": "function"
    },
    {
      "inputs": [],
      "name": "decimals",
      "outputs": [
        {
          "internalType": "uint8",
          "name": "",
          "type": "uint8"
        }
      ],
      "stateMutability": "pure",
      "type": "function"
    },
    {
      "inputs": [
        {
          "internalType": "address",
          "name": "from",
          "type": "address"
        },
        {
          "internalType": "address",
          "name": "to",
          "type": "address"
        },
        {
          "internalType": "uint256",
          "name": "amount",
          "type": "uint256"
        }
      ],
      "name": "depositFrom",
      "outputs": [
        {
          "internalType": "bool",
          "name": "",
          "type": "bool"
        }
      ],
      "stateMutability": "nonpayable",
      "type": "function"
    },
    {
      "inputs": [
        {
          "internalType": "address",
          "name": "to",
          "type": "address"
        },
        {
          "internalType": "uint256",
          "name": "amount",
          "type": "uint256"
        }
      ],
      "name": "depositTransfer",
      "outputs": [
        {
          "internalType": "bool",
          "name": "",
          "type": "bool"
        }
      ],
      "stateMutability": "nonpayable",
      "type": "function"
    },
    {
      "inputs": [
        {
          "internalType": "euint64",
          "name": "encryptedAmount",
          "type": "bytes32"
        },
        {
          "internalType": "uint64",
          "name": "cleartextAmount",
          "type": "uint64"
        },
        {
          "internalType": "bytes",
          "name": "decryptionProof",
          "type": "bytes"
        }
      ],
      "name": "discloseEncryptedAmount",
      "outputs": [],
      "stateMutability": "nonpayable",
      "type": "function"
    },
    {
      "inputs": [
        {
          "internalType": "euint64",
          "name": "burntAmount",
          "type": "bytes32"
        },
        {
          "internalType": "uint64",
          "name": "burntAmountCleartext",
          "type": "uint64"
        },
        {
          "internalType": "bytes",
          "name": "decryptionProof",
          "type": "bytes"
        }
      ],
      "name": "finalizeUnwrap",
      "outputs": [],
      "stateMutability": "nonpayable",
      "type": "function"
    },
    {
      "inputs": [
        {
          "internalType": "address",
          "name": "holder",
          "type": "address"
        },
        {
          "internalType": "address",
          "name": "spender",
          "type": "address"
        }
      ],
      "name": "isOperator",
      "outputs": [
        {
          "internalType": "bool",
          "name": "",
          "type": "bool"
        }
      ],
      "stateMutability": "view",
      "type": "function"
    },
    {
      "inputs": [],
      "name": "name",
      "outputs": [
        {
          "internalType": "string",
          "name": "",
          "type": "string"
        }
      ],
      "stateMutability": "view",
      "type": "function"
    },
    {
      "inputs": [
        {
          "internalType": "euint64",
          "name": "encryptedAmount",
          "type": "bytes32"
        }
      ],
      "name": "requestDiscloseEncryptedAmount",
      "outputs": [],
      "stateMutability": "nonpayable",
      "type": "function"
    },
    {
      "inputs": [
        {
          "internalType": "address",
          "name": "operator",
          "type": "address"
        },
        {
          "internalType": "uint48",
          "name": "until",
          "type": "uint48"
        }
      ],
      "name": "setOperator",
      "outputs": [],
      "stateMutability": "nonpayable",
      "type": "function"
    },
    {
      "inputs": [
        {
          "internalType": "bytes4",
          "name": "interfaceId",
          "type": "bytes4"
        }
      ],
      "name": "supportsInterface",
      "outputs": [
        {
          "internalType": "bool",
          "name": "",
          "type": "bool"
        }
      ],
      "stateMutability": "view",
      "type": "function"
    },
    {
      "inputs": [],
      "name": "symbol",
      "outputs": [
        {
          "internalType": "string",
          "name": "",
          "type": "string"
        }
      ],
      "stateMutability": "view",
      "type": "function"
    },
    {
      "inputs": [
        {
          "internalType": "uint256",
          "name": "amount",
          "type": "uint256"
        }
      ],
      "name": "unwrap",
      "outputs": [],
      "stateMutability": "nonpayable",
      "type": "function"
    },
    {
      "inputs": [],
      "name": "wrap",
      "outputs": [],
      "stateMutability": "payable",
      "type": "function"
    },
    {
      "stateMutability": "payable",
      "type": "receive"
    }
  ],
  "transactionHash": "0x74d762ade8f9126afedf78f14633c962ccaeb8feff3c6f8e7d0613ec8d76ea28",
  "args": [],
  "numDeployments": 1,
  "solcInputHash": "96707c964921adc3bb6e8fa683122e09",
  "bytecode": "0x608060405234801561000f575f5ffd5b506040518060400160405280601881526020017f436f6e666964656e7469616c2057726170706564204554480000000000000000815250604051806040016040528060058152602001640c6ae8aa8960db1b81525060405180602001604052805f815250826003908161008291906103a6565b50600461008f83826103a6565b50600561009c82826103a6565b5050505061015a6100b161015f60201b60201c565b80517f9e7b61f58c47dc699ac88507c4f5bb9f121c03808c5676a8078fe583e464970080546001600160a01b03199081166001600160a01b039384161790915560208301517f9e7b61f58c47dc699ac88507c4f5bb9f121c03808c5676a8078fe583e46497018054831691841691909117905560408301517f9e7b61f58c47dc699ac88507c4f5bb9f121c03808c5676a8078fe583e46497028054909216921691909117905550565b610460565b604080516060810182525f8082526020820181905291810191909152466001036101f8575060408051606080820183525f8083526020808401829052928401528251908101835273ca2e8f1f656cd25c01f05d0b243ab1ecd4a8ffb6815273d82385dada1ae3e969447f20a3164f6213100e75918101919091527377627828a55156b04ac0dc0eb30467f1a552bb039181019190915290565b4662aa36a703610277575060408051606080820183525f8083526020808401829052928401528251908101835273f0ffdc93b7e186bc2f8cb3daa75d86d1930a433d81527392c920834ec8941d2c77d188936e1f7a6f49c1279181019190915273be0e383937d564d7ff0bc3b46c51f0bf8d5c311a9181019190915290565b46617a69036102f5575060408051606080820183525f808352602080840182905292840152825190810183527350157cffd6bbfa2dece204a89ec419c23ef5755d815273e3a9105a3a932253a70f126eb1e3b589c643dd249181019190915273901f8942346f7ab3a01f6d7613119bca447bb0309181019190915290565b6040516373cac13b60e01b815260040160405180910390fd5b634e487b7160e01b5f52604160045260245ffd5b600181811c9082168061033657607f821691505b60208210810361035457634e487b7160e01b5f52602260045260245ffd5b50919050565b601f8211156103a157805f5260205f20601f840160051c8101602085101561037f5750805b601f840160051c820191505b8181101561039e575f815560010161038b565b50505b505050565b81516001600160401b038111156103bf576103bf61030e565b6103d3816103cd8454610322565b8461035a565b6020601f821160018114610405575f83156103ee5750848201515b5f19600385901b1c1916600184901b17845561039e565b5f84815260208120601f198516915b828110156104345787850151825560209485019460019092019101610414565b508482101561045157868401515f19600387901b60f8161c191681555b50505050600190811b01905550565b6124718061046d5f395ff3fe608060405260043610610191575f3560e01c806395d89b41116100dc578063d4febb9611610087578063de64211911610062578063de64211914610427578063e064b9bb14610446578063e8a3d48514610465578063eb3155b514610479575f5ffd5b8063d4febb96146103ca578063d8061806146103e9578063de0e9a3e14610408575f5ffd5b8063b6363cf2116100b7578063b6363cf214610384578063c7b8a75e146103a3578063d46eb119146103c2575f5ffd5b806395d89b4114610332578063a26ef3af14610346578063b1af281e14610365575f5ffd5b8063537d3c501161013c5780635bebed7e116101175780635bebed7e146102e057806368a9674d146102ff5780638927b0301461031e575f5ffd5b8063537d3c501461028c57806354095227146102ab5780635bb67a05146102bf575f5ffd5b8063313ce5671161016c578063313ce5671461021e578063344ff1011461023957806334c457431461026d575f5ffd5b806301ffc9a71461019c57806306fdde03146101d05780632fb74e62146101f1575f5ffd5b3661019857005b5f5ffd5b3480156101a7575f5ffd5b506101bb6101b6366004611e60565b610498565b60405190151581526020015b60405180910390f35b3480156101db575f5ffd5b506101e46104ce565b6040516101c79190611eb5565b3480156101fc575f5ffd5b5061021061020b366004611f20565b61055e565b6040519081526020016101c7565b348015610229575f5ffd5b50604051601281526020016101c7565b348015610244575f5ffd5b50610210610253366004611f76565b6001600160a01b03165f9081526020819052604090205490565b348015610278575f5ffd5b50610210610287366004611f8f565b6105b1565b348015610297575f5ffd5b506102106102a6366004611f20565b61065a565b3480156102b6575f5ffd5b50600254610210565b3480156102ca575f5ffd5b506102de6102d9366004612028565b6106bc565b005b3480156102eb575f5ffd5b506102106102fa366004612074565b6108cc565b34801561030a575f5ffd5b506101bb61031936600461209c565b61091e565b348015610329575f5ffd5b5061021061098a565b34801561033d575f5ffd5b506101e4610998565b348015610351575f5ffd5b506101bb610360366004612074565b6109a7565b348015610370575f5ffd5b506102de61037f366004612028565b6109cd565b34801561038f575f5ffd5b506101bb61039e3660046120d6565b610ac2565b3480156103ae575f5ffd5b506102106103bd3660046120fe565b610b14565b6102de610bb7565b3480156103d5575f5ffd5b506102de6103e4366004612168565b610c53565b3480156103f4575f5ffd5b506102de6104033660046121a7565b610c62565b348015610413575f5ffd5b506102de6104223660046121a7565b610cda565b348015610432575f5ffd5b506102106104413660046121be565b610d91565b348015610451575f5ffd5b506102106104603660046120fe565b610ded565b348015610470575f5ffd5b506101e4610e72565b348015610484575f5ffd5b5061021061049336600461209c565b610e81565b5f6001600160e01b031982166312563ca960e21b14806104c857506301ffc9a760e01b6001600160e01b03198316145b92915050565b6060600380546104dd90612247565b80601f016020809104026020016040519081016040528092919081815260200182805461050990612247565b80156105545780601f1061052b57610100808354040283529160200191610554565b820191905f5260205f20905b81548152906001019060200180831161053757829003601f168201915b5050505050905090565b5f6105a833866105a38787878080601f0160208091040260200160405190810160405280939291908181526020018383808284375f92019190915250610f2092505050565b610f86565b95945050505050565b5f6105bc8833610ac2565b883390916105f557604051630f3e596760e31b81526001600160a01b039283166004820152911660248201526044015b60405180910390fd5b5050610642888861063b8989898080601f0160208091040260200160405190810160405280939291908181526020018383808284375f92019190915250610f2092505050565b8686611004565b905061064e813361105b565b50979650505050505050565b5f610665843361107e565b84339091610698576040516367cfe80560e01b815260048101929092526001600160a01b031660248201526044016105ec565b50506106a73386868686611004565b90506106b3813361105b565b50949350505050565b5f848152600660205260409020546001600160a01b031684816106f5576040516368b187c760e11b81526004016105ec91815260200190565b505f85815260066020526040808220805473ffffffffffffffffffffffffffffffffffffffff19169055805160018082528183019092529081602001602082028036833701905050905085815f815181106107525761075261227f565b6020026020010181815250505f85604051602001610780919067ffffffffffffffff91909116815260200190565b60408051601f198184030181526020601f880181900481028401810190925286835292506107cc91849184919089908990819084018382808284375f9201919091525061108992505050565b5f836001600160a01b03168767ffffffffffffffff166040515f6040518083038185875af1925050503d805f811461081f576040519150601f19603f3d011682016040523d82523d5f602084013e610824565b606091505b50509050806108755760405162461bcd60e51b815260206004820152601360248201527f455448207472616e73666572206661696c65640000000000000000000000000060448201526064016105ec565b6040805189815267ffffffffffffffff891660208201526001600160a01b038616917f2d4edf3c2943002120f53dab3f8940043f34799f4a92ab90f2f81f7dd004a49e910160405180910390a25050505050505050565b5f6108d7823361107e565b8233909161090a576040516367cfe80560e01b815260048101929092526001600160a01b031660248201526044016105ec565b5050610917338484610f86565b9392505050565b5f6109298433610ac2565b8433909161095d57604051630f3e596760e31b81526001600160a01b039283166004820152911660248201526044016105ec565b50505f61097161096c846110f4565b61112e565b905061097e858583610f86565b50600195945050505050565b5f610993611144565b905090565b6060600480546104dd90612247565b5f5f6109b561096c846110f4565b90506109c2338583610f86565b506001949350505050565b6040805160018082528183019092525f916020808301908036833701905050905084815f81518110610a0157610a0161227f565b6020026020010181815250505f84604051602001610a2f919067ffffffffffffffff91909116815260200190565b60408051601f198184030181526020601f87018190048102840181019092528583529250610a7b91849184919088908890819084018382808284375f9201919091525061108992505050565b60405167ffffffffffffffff8616815286907f83bbbc07896439e5d950a6cead04cbc676180af7a61cecf43f5296475057f5719060200160405180910390a2505050505050565b5f816001600160a01b0316836001600160a01b031614806109175750506001600160a01b039182165f90815260016020908152604080832093909416825291909152205465ffffffffffff1642111590565b5f610b1f843361107e565b84339091610b52576040516367cfe80560e01b815260048101929092526001600160a01b031660248201526044016105ec565b5050610b5e8633610ac2565b86339091610b9257604051630f3e596760e31b81526001600160a01b039283166004820152911660248201526044016105ec565b5050610ba18686868686611004565b9050610bad813361105b565b5095945050505050565b5f3411610c065760405162461bcd60e51b815260206004820152600b60248201527f5a65726f20616d6f756e7400000000000000000000000000000000000000000060448201526064016105ec565b610c1b33610c1661096c346110f4565b611178565b5060405134815233907fb61d00fdfee32467c7d81db64c811ae60c104c346debf36a14afe84b8fce59e59060200160405180910390a2565b610c5e3383836111b9565b5050565b610c6c813361107e565b81339091610c9f576040516367cfe80560e01b815260048101929092526001600160a01b031660248201526044016105ec565b5050610caa81611230565b50604051339082907f189c3bfae2e5ce7726b29d57bb6ed0f1a7ebcd153a863ff5ecb6cd998064c98c905f90a350565b5f610ce761096c836110f4565b90505f610cf4338361124b565b9050610cff81611230565b505f818152600660205260409020546001600160a01b031615610d2457610d24612293565b5f8181526006602052604090819020805473ffffffffffffffffffffffffffffffffffffffff19163390811790915590517f77d02d353c5629272875d11f1b34ec4c65d7430b075575b78cd2502034c469ee90610d849084815260200190565b60405180910390a2505050565b5f610dd6338861063b8989898080601f0160208091040260200160405190810160405280939291908181526020018383808284375f92019190915250610f2092505050565b9050610de2813361105b565b509695505050505050565b5f610df88633610ac2565b86339091610e2c57604051630f3e596760e31b81526001600160a01b039283166004820152911660248201526044016105ec565b5050610ba186866105a38787878080601f0160208091040260200160405190810160405280939291908181526020018383808284375f92019190915250610f2092505050565b6060600580546104dd90612247565b5f610e8c823361107e565b82339091610ebf576040516367cfe80560e01b815260048101929092526001600160a01b031660248201526044016105ec565b5050610ecb8433610ac2565b84339091610eff57604051630f3e596760e31b81526001600160a01b039283166004820152911660248201526044016105ec565b5050610f0c848484610f86565b9050610f18813361105b565b509392505050565b5f81515f14610f3c57610f358383600561128c565b90506104c8565b825f819003610f5657610f4e5f61112e565b9150506104c8565b610f608133611399565b610f3557604051630276b5d960e01b8152600481018290523360248201526044016105ec565b5f806001600160a01b038516610fbb5760405163ee457ebf60e01b81526001600160a01b0390911660048201526024016105ec565b505f6001600160a01b038416610ff057604051638d51880160e01b81526001600160a01b0390911660048201526024016105ec565b50610ffc84848461141d565b949350505050565b5f5f611011878787610f86565b90505f6110223389898589896115fa565b90505f611042888a61103d856110375f61112e565b886116fe565b61141d565b905061104e838261173d565b9998505050505050505050565b5f8261106d5761106a5f61112e565b92505b611077838361176b565b5090919050565b5f6109178383611399565b5f6110958484846117df565b9050806110b55760405163cf6c44e960e01b815260040160405180910390fd5b7fc6366bab028b8d033cb362cfd1f2f3457ef4e92fc738b6788b90d5a7846367a084846040516110e69291906122e1565b60405180910390a150505050565b5f67ffffffffffffffff82111561112a57604080516306dfcc6560e41b81526004810191909152602481018390526044016105ec565b5090565b5f6104c88267ffffffffffffffff166005611883565b5f466001036111535750600190565b4662aa36a703611164575061271190565b46617a690361117357505f1990565b505f90565b5f806001600160a01b0384166111ad57604051638d51880160e01b81526001600160a01b0390911660048201526024016105ec565b506109175f848461141d565b6001600160a01b038381165f81815260016020908152604080832094871680845294825291829020805465ffffffffffff191665ffffffffffff871690811790915591519182527f921a218a75d18e8ec5704851e6b234a85725b21a2521ce889622c35dedc1fa12910160405180910390a3505050565b5f816112425761123f5f61112e565b91505b61112a82611925565b5f806001600160a01b0384166112805760405163ee457ebf60e01b81526001600160a01b0390911660048201526024016105ec565b50610917835f8461141d565b7f9e7b61f58c47dc699ac88507c4f5bb9f121c03808c5676a8078fe583e46497015460405163045fc19560e11b81525f915f5160206124455f395f51905f52916001600160a01b03909116906308bf832a906112f2908890339089908990600401612325565b6020604051808303815f875af115801561130e573d5f5f3e3d5ffd5b505050506040513d601f19601f82011682018060405250810190611332919061235b565b8154604051630f8e573b60e21b8152600481018390523360248201529193506001600160a01b031690633e395cec906044015f604051808303815f87803b15801561137b575f5ffd5b505af115801561138d573d5f5f3e3d5ffd5b50505050509392505050565b5f805f5160206124455f395f51905f5280546040516382027b6d60e01b8152600481018790526001600160a01b0386811660248301529293509116906382027b6d90604401602060405180830381865afa1580156113f9573d5f5f3e3d5ffd5b505050506040513d601f19601f82011682018060405250810190610ffc9190612372565b5f80806001600160a01b0386166114535761143a600254856119a3565b9092509050611448816119ed565b5060028190556114d7565b6001600160a01b0386165f908152602081905260409020548681611496576040516317fe473760e21b81526001600160a01b0390911660048201526024016105ec565b506114a18186611a09565b90935091506114af826119ed565b506114ba8288611a6e565b50506001600160a01b0386165f9081526020819052604090208190555b6114ea82856114e55f61112e565b6116fe565b92506001600160a01b03851661151c576115066002548461173d565b9050611511816119ed565b506002819055611570565b6001600160a01b0385165f9081526020819052604090205461153e9084611a8a565b9050611549816119ed565b506115548186611a6e565b506001600160a01b0385165f9081526020819052604090208190555b6001600160a01b0386161561158b576115898387611a6e565b505b6001600160a01b038516156115a6576115a48386611a6e565b505b6115af836119ed565b5082856001600160a01b0316876001600160a01b03167f67500e8d0ed826d2194f514dd0d8124f35648ab6e3fb5e6ed867134cffe661e960405160405180910390a450509392505050565b5f6001600160a01b0385163b156116e7576040516346083bfd60e01b81526001600160a01b038616906346083bfd9061163f908a908a90899089908990600401612391565b6020604051808303815f875af1925050508015611679575060408051601f3d908101601f191682019092526116769181019061235b565b60015b6116e0573d8080156116a6576040519150601f19603f3d011682016040523d82523d5f602084013e6116ab565b606091505b5080515f036116d857604051638d51880160e01b81526001600160a01b03871660048201526024016105ec565b805181602001fd5b90506116f4565b6116f16001611ab8565b90505b9695505050505050565b5f836117105761170d5f611ab8565b93505b826117215761171e5f61112e565b92505b816117325761172f5f61112e565b91505b610ffc848484611ad3565b5f8261174f5761174c5f61112e565b92505b816117605761175d5f61112e565b91505b61091783835f611b60565b5f5160206124455f395f51905f528054604051630f8e573b60e21b8152600481018590526001600160a01b03848116602483015290911690633e395cec906044015b5f604051808303815f87803b1580156117c4575f5ffd5b505af11580156117d6573d5f5f3e3d5ffd5b50505050505050565b7f9e7b61f58c47dc699ac88507c4f5bb9f121c03808c5676a8078fe583e4649702546040516378542ead60e01b81525f915f5160206124455f395f51905f52916001600160a01b03909116906378542ead90611843908890889088906004016123e6565b6020604051808303815f875af115801561185f573d5f5f3e3d5ffd5b505050506040513d601f19601f820116820180604052508101906105a89190612372565b7f9e7b61f58c47dc699ac88507c4f5bb9f121c03808c5676a8078fe583e464970154604051639cd07acb60e01b81525f915f5160206124455f395f51905f52916001600160a01b0390911690639cd07acb906118e5908790879060040161241e565b6020604051808303815f875af1158015611901573d5f5f3e3d5ffd5b505050506040513d601f19601f82011682018060405250810190610ffc919061235b565b6040805160018082528183019092525f5160206124455f395f51905f52915f91906020808301908036833701905050905082815f815181106119695761196961227f565b60209081029190910101528154604051637d6e912360e11b81526001600160a01b039091169063fadd2246906117ad908490600401612432565b5f80836119be576119b46001611ab8565b83915091506119e6565b5f6119c98585611a8a565b90506119d58186611c26565b92506119e28382876116fe565b9150505b9250929050565b5f816119ff576119fc5f61112e565b91505b61112a8230611c54565b5f8083611a455782611a2957611a1f6001611ab8565b84915091506119e6565b611a33835f611c9a565b611a3c5f61112e565b915091506119e6565b611a4f8484611c26565b9150611a6582611a5f868661173d565b866116fe565b90509250929050565b5f82611a8057611a7d5f61112e565b92505b6110778383611c54565b5f82611a9c57611a995f61112e565b92505b81611aad57611aaa5f61112e565b91505b61091783835f611cc2565b5f6104c882611ac7575f611aca565b60015b60ff165f611883565b5f805f5160206124455f395f51905f526001810154604051637702dcff60e01b81526004810188905260248101879052604481018690529192506001600160a01b031690637702dcff906064016020604051808303815f875af1158015611b3c573d5f5f3e3d5ffd5b505050506040513d601f19601f820116820180604052508101906105a8919061235b565b5f5f8215611b735750600160f81b611b76565b505f5b7f9e7b61f58c47dc699ac88507c4f5bb9f121c03808c5676a8078fe583e4649701546040516303056db360e31b815260048101879052602481018690526001600160f81b0319831660448201525f5160206124455f395f51905f52916001600160a01b03169063182b6d98906064015b6020604051808303815f875af1158015611c02573d5f5f3e3d5ffd5b505050506040513d601f19601f820116820180604052508101906116f4919061235b565b5f82611c3857611c355f61112e565b92505b81611c4957611c465f61112e565b91505b61091783835f611d4c565b5f5160206124455f395f51905f528054604051635ca4b5b160e11b8152600481018590526001600160a01b0384811660248301529091169063b9496b62906044016117ad565b5f82611cac57611ca95f61112e565b92505b6109178367ffffffffffffffff84166001611dd6565b5f5f8215611cd55750600160f81b611cd8565b505f5b7f9e7b61f58c47dc699ac88507c4f5bb9f121c03808c5676a8078fe583e46497015460405163022f65e760e31b815260048101879052602481018690526001600160f81b0319831660448201525f5160206124455f395f51905f52916001600160a01b03169063117b2f3890606401611be6565b5f5f8215611d5f5750600160f81b611d62565b505f5b7f9e7b61f58c47dc699ac88507c4f5bb9f121c03808c5676a8078fe583e464970154604051631391547f60e01b815260048101879052602481018690526001600160f81b0319831660448201525f5160206124455f395f51905f52916001600160a01b031690631391547f90606401611be6565b5f5f8215611de95750600160f81b611dec565b505f5b7f9e7b61f58c47dc699ac88507c4f5bb9f121c03808c5676a8078fe583e46497015460405163f77f3f1d60e01b815260048101879052602481018690526001600160f81b0319831660448201525f5160206124455f395f51905f52916001600160a01b03169063f77f3f1d90606401611be6565b5f60208284031215611e70575f5ffd5b81356001600160e01b031981168114610917575f5ffd5b5f81518084528060208401602086015e5f602082860101526020601f19601f83011685010191505092915050565b602081525f6109176020830184611e87565b80356001600160a01b0381168114611edd575f5ffd5b919050565b5f5f83601f840112611ef2575f5ffd5b50813567ffffffffffffffff811115611f09575f5ffd5b6020830191508360208285010111156119e6575f5ffd5b5f5f5f5f60608587031215611f33575f5ffd5b611f3c85611ec7565b935060208501359250604085013567ffffffffffffffff811115611f5e575f5ffd5b611f6a87828801611ee2565b95989497509550505050565b5f60208284031215611f86575f5ffd5b61091782611ec7565b5f5f5f5f5f5f5f60a0888a031215611fa5575f5ffd5b611fae88611ec7565b9650611fbc60208901611ec7565b955060408801359450606088013567ffffffffffffffff811115611fde575f5ffd5b611fea8a828b01611ee2565b909550935050608088013567ffffffffffffffff811115612009575f5ffd5b6120158a828b01611ee2565b989b979a50959850939692959293505050565b5f5f5f5f6060858703121561203b575f5ffd5b84359350602085013567ffffffffffffffff81168114612059575f5ffd5b9250604085013567ffffffffffffffff811115611f5e575f5ffd5b5f5f60408385031215612085575f5ffd5b61208e83611ec7565b946020939093013593505050565b5f5f5f606084860312156120ae575f5ffd5b6120b784611ec7565b92506120c560208501611ec7565b929592945050506040919091013590565b5f5f604083850312156120e7575f5ffd5b6120f083611ec7565b9150611a6560208401611ec7565b5f5f5f5f5f60808688031215612112575f5ffd5b61211b86611ec7565b945061212960208701611ec7565b935060408601359250606086013567ffffffffffffffff81111561214b575f5ffd5b61215788828901611ee2565b969995985093965092949392505050565b5f5f60408385031215612179575f5ffd5b61218283611ec7565b9150602083013565ffffffffffff8116811461219c575f5ffd5b809150509250929050565b5f602082840312156121b7575f5ffd5b5035919050565b5f5f5f5f5f5f608087890312156121d3575f5ffd5b6121dc87611ec7565b955060208701359450604087013567ffffffffffffffff8111156121fe575f5ffd5b61220a89828a01611ee2565b909550935050606087013567ffffffffffffffff811115612229575f5ffd5b61223589828a01611ee2565b979a9699509497509295939492505050565b600181811c9082168061225b57607f821691505b60208210810361227957634e487b7160e01b5f52602260045260245ffd5b50919050565b634e487b7160e01b5f52603260045260245ffd5b634e487b7160e01b5f52600160045260245ffd5b5f8151808452602084019350602083015f5b828110156122d75781518652602095860195909101906001016122b9565b5093949350505050565b604081525f6122f360408301856122a7565b82810360208401526105a88185611e87565b6054811061232157634e487b7160e01b5f52602160045260245ffd5b9052565b8481526001600160a01b0384166020820152608060408201525f61234c6080830185611e87565b90506105a86060830184612305565b5f6020828403121561236b575f5ffd5b5051919050565b5f60208284031215612382575f5ffd5b81518015158114610917575f5ffd5b6001600160a01b03861681526001600160a01b038516602082015283604082015260806060820152816080820152818360a08301375f81830160a090810191909152601f909201601f19160101949350505050565b606081525f6123f860608301866122a7565b828103602084015261240a8186611e87565b905082810360408401526116f48185611e87565b828152604081016109176020830184612305565b602081525f61091760208301846122a756fe9e7b61f58c47dc699ac88507c4f5bb9f121c03808c5676a8078fe583e4649700a164736f6c634300081b000a",
  "devdoc": {
    "errors": {
      "ERC7984InvalidGatewayRequest(uint256)": [
        {
          "details": "The given gateway request ID `requestId` is invalid."
        }
      ],
      "ERC7984InvalidReceiver(address)": [
        {
          "details": "The given receiver `receiver` is invalid for transfers."
        }
      ],
      "ERC7984InvalidSender(address)": [
        {
          "details": "The given sender `sender` is invalid for transfers."
        }
      ],
      "ERC7984UnauthorizedCaller(address)": [
        {
          "details": "The given caller `caller` is not authorized for the current operation."
        }
      ],
      "ERC7984UnauthorizedSpender(address,address)": [
        {
          "details": "The given holder `holder` is not authorized to spend on behalf of `spender`."
        }
      ],
      "ERC7984UnauthorizedUseOfEncryptedAmount(bytes32,address)": [
        {
          "details": "The caller `user` does not have access to the encrypted amount `amount`. NOTE: Try using the equivalent transfer function with an input proof."
        }
      ],
      "ERC7984ZeroBalance(address)": [
        {
          "details": "The holder `holder` is trying to send tokens but has a balance of 0."
        }
      ],
      "SafeCastOverflowedUintDowncast(uint8,uint256)": [
        {
          "details": "Value doesn't fit in a uint of `bits` size."
        }
      ]
    },
    "events": {
      "AmountDiscloseRequested(bytes32,address)": {
        "details": "Emitted when an encrypted amount `encryptedAmount` is requested for disclosure by `requester`."
      },
      "AmountDisclosed(bytes32,uint64)": {
        "details": "Emitted when an encrypted amount is disclosed. Accounts with access to the encrypted amount `encryptedAmount` that is also accessible to this contract should be able to disclose the amount. This functionality is implementation specific."
      },
      "ConfidentialTransfer(address,address,bytes32)": {
        "details": "Emitted when a confidential transfer is made from `from` to `to` of encrypted amount `amount`."
      },
      "OperatorSet(address,address,uint48)": {
        "details": "Emitted when the expiration timestamp for an operator `operator` is updated for a given `holder`. The operator may move any amount of tokens on behalf of the holder until the timestamp `until`."
      }
    },
    "kind": "dev",
    "methods": {
      "confidentialBalanceOf(address)": {
        "details": "Returns the confidential balance of the account `account`."
      },
      "confidentialTotalSupply()": {
        "details": "Returns the confidential total supply of the token."
      },
      "confidentialTransfer(address,bytes32)": {
        "details": "Similar to {confidentialTransfer-address-externalEuint64-bytes} but without an input proof. The caller *must* already be allowed by ACL for the given `amount`."
      },
      "confidentialTransfer(address,bytes32,bytes)": {
        "details": "Transfers the encrypted amount `encryptedAmount` to `to` with the given input proof `inputProof`. Returns the encrypted amount that was actually transferred."
      },
      "confidentialTransferAndCall(address,bytes32,bytes)": {
        "details": "Similar to {confidentialTransfer-address-euint64} but with a callback to `to` after the transfer."
      },
      "confidentialTransferAndCall(address,bytes32,bytes,bytes)": {
        "details": "Similar to {confidentialTransfer-address-externalEuint64-bytes} but with a callback to `to` after the transfer. The callback is made to the {IERC7984Receiver-onConfidentialTransferReceived} function on the to address with the actual transferred amount (may differ from the given `encryptedAmount`) and the given data `data`."
      },
      "confidentialTransferFrom(address,address,bytes32)": {
        "details": "Similar to {confidentialTransferFrom-address-address-externalEuint64-bytes} but without an input proof. The caller *must* be already allowed by ACL for the given `amount`."
      },
      "confidentialTransferFrom(address,address,bytes32,bytes)": {
        "details": "Transfers the encrypted amount `encryptedAmount` from `from` to `to` with the given input proof `inputProof`. `msg.sender` must be either `from` or an operator for `from`. Returns the encrypted amount that was actually transferred."
      },
      "confidentialTransferFromAndCall(address,address,bytes32,bytes)": {
        "details": "Similar to {confidentialTransferFrom-address-address-euint64} but with a callback to `to` after the transfer."
      },
      "confidentialTransferFromAndCall(address,address,bytes32,bytes,bytes)": {
        "details": "Similar to {confidentialTransferFrom-address-address-externalEuint64-bytes} but with a callback to `to` after the transfer."
      },
      "contractURI()": {
        "details": "Returns the contract URI. See https://eips.ethereum.org/EIPS/eip-7572[ERC-7572] for details."
      },
      "decimals()": {
        "details": "Returns the number of decimals of the token. Recommended to be 6."
      },
      "depositFrom(address,address,uint256)": {
        "details": "Caller must be an operator for `from` via setOperator().      Internally converts the plaintext amount to euint64 and calls _transfer.",
        "params": {
          "amount": "The plaintext amount to transfer",
          "from": "The address to debit",
          "to": "The address to credit"
        }
      },
      "depositTransfer(address,uint256)": {
        "details": "Caller must hold the tokens (msg.sender is `from`).",
        "params": {
          "amount": "The plaintext amount to transfer",
          "to": "The address to credit"
        }
      },
      "discloseEncryptedAmount(bytes32,uint64,bytes)": {
        "details": "Publicly discloses an encrypted value with a given decryption proof. Emits the {AmountDisclosed} event. NOTE: May not be tied to a prior request via {requestDiscloseEncryptedAmount}."
      },
      "isOperator(address,address)": {
        "details": "Returns true if `spender` is currently an operator for `holder`."
      },
      "name()": {
        "details": "Returns the name of the token."
      },
      "requestDiscloseEncryptedAmount(bytes32)": {
        "details": "Starts the process to disclose an encrypted amount `encryptedAmount` publicly by making it publicly decryptable. Emits the {AmountDiscloseRequested} event. NOTE: Both `msg.sender` and `address(this)` must have permission to access the encrypted amount `encryptedAmount` to request disclosure of the encrypted amount `encryptedAmount`."
      },
      "setOperator(address,uint48)": {
        "details": "Sets `operator` as an operator for `holder` until the timestamp `until`. NOTE: An operator may transfer any amount of tokens on behalf of a holder while approved."
      },
      "supportsInterface(bytes4)": {
        "details": "Returns true if this contract implements the interface defined by `interfaceId`. See the corresponding https://eips.ethereum.org/EIPS/eip-165#how-interfaces-are-identified[ERC section] to learn more about how these ids are created. This function call must use less than 30 000 gas."
      },
      "symbol()": {
        "details": "Returns the symbol of the token."
      }
    },
    "title": "ConfidentialWETH - Wrapped ETH with encrypted balances (ERC7984)",
    "version": 1
  },
  "userdoc": {
    "errors": {
      "InvalidKMSSignatures()": [
        {
          "notice": "Returned if the returned KMS signatures are not valid."
        }
      ],
      "SenderNotAllowedToUseHandle(bytes32,address)": [
        {
          "notice": "Returned if the sender is not allowed to use the handle."
        }
      ],
      "ZamaProtocolUnsupported()": [
        {
          "notice": "Returned if the Zama protocol is not supported on the current chain"
        }
      ]
    },
    "events": {
      "PublicDecryptionVerified(bytes32[],bytes)": {
        "notice": "This event is emitted when public decryption has been successfully verified."
      }
    },
    "kind": "user",
    "methods": {
      "depositFrom(address,address,uint256)": {
        "notice": "Plaintext deposit helper for OTC backward compatibility.         Allows an operator (e.g. the OTC contract) to pull plaintext-amount tokens         from `from` and credit encrypted balance to `to`."
      },
      "depositTransfer(address,uint256)": {
        "notice": "Plaintext transfer helper for OTC backward compatibility (refunds, etc.).         Allows the contract itself to push tokens using a plaintext amount."
      },
      "finalizeUnwrap(bytes32,uint64,bytes)": {
        "notice": "Finalize unwrap with decryption proof - sends ETH back"
      },
      "unwrap(uint256)": {
        "notice": "Request unwrap - burns encrypted amount, needs finalizeUnwrap to complete"
      },
      "wrap()": {
        "notice": "Wrap ETH into cWETH (encrypted balance)"
      }
    },
    "notice": "Converts ETH into confidential cWETH using OpenZeppelin's ERC7984 base.         Inherits confidentialTransfer, confidentialTransferFrom, confidentialBalanceOf,         setOperator, isOperator, and all other ERC7984 standard functions.         ETH wrapping/unwrapping is handled with a custom two-phase pattern         (unwrap requires FHE decryption via finalizeUnwrap).",
    "version": 1
  },
  "storageLayout": {
    "storage": [
      {
        "astId": 42421,
        "contract": "contracts/ConfidentialWETH.sol:ConfidentialWETH",
        "label": "_balances",
        "offset": 0,
        "slot": "0",
        "type": "t_mapping(t_address,t_userDefinedValueType(euint64)50106)"
      },
      {
        "astId": 42427,
        "contract": "contracts/ConfidentialWETH.sol:ConfidentialWETH",
        "label": "_operators",
        "offset": 0,
        "slot": "1",
        "type": "t_mapping(t_address,t_mapping(t_address,t_uint48))"
      },
      {
        "astId": 42430,
        "contract": "contracts/ConfidentialWETH.sol:ConfidentialWETH",
        "label": "_totalSupply",
        "offset": 0,
        "slot": "2",
        "type": "t_userDefinedValueType(euint64)50106"
      },
      {
        "astId": 42432,
        "contract": "contracts/ConfidentialWETH.sol:ConfidentialWETH",
        "label": "_name",
        "offset": 0,
        "slot": "3",
        "type": "t_string_storage"
      },
      {
        "astId": 42434,
        "contract": "contracts/ConfidentialWETH.sol:ConfidentialWETH",
        "label": "_symbol",
        "offset": 0,
        "slot": "4",
        "type": "t_string_storage"
      },
      {
        "astId": 42436,
        "contract": "contracts/ConfidentialWETH.sol:ConfidentialWETH",
        "label": "_contractURI",
        "offset": 0,
        "slot": "5",
        "type": "t_string_storage"
      },
      {
        "astId": 49670,
        "contract": "contracts/ConfidentialWETH.sol:ConfidentialWETH",
        "label": "_unwrapRequests",
        "offset": 0,
        "slot": "6",
        "type": "t_mapping(t_userDefinedValueType(euint64)50106,t_address)"
      }
    ],
    "types": {
      "t_address": {
        "encoding": "inplace",
        "label": "address",
        "numberOfBytes": "20"
      },
      "t_mapping(t_address,t_mapping(t_address,t_uint48))": {
        "encoding": "mapping",
        "key": "t_address",
        "label": "mapping(address => mapping(address => uint48))",
        "numberOfBytes": "32",
        "value": "t_mapping(t_address,t_uint48)"
      },
      "t_mapping(t_address,t_uint48)": {
        "encoding": "mapping",
        "key": "t_address",
        "label": "mapping(address => uint48)",
        "numberOfBytes": "32",
        "value": "t_uint48"
      },
      "t_mapping(t_address,t_userDefinedValueType(euint64)50106)": {
        "encoding": "mapping",
        "key": "t_address",
        "label": "mapping(address => euint64)",
        "numberOfBytes": "32",
        "value": "t_userDefinedValueType(euint64)50106"
      },
      "t_mapping(t_userDefinedValueType(euint64)50106,t_address)": {
        "encoding": "mapping",
        "key": "t_userDefinedValueType(euint64)50106",
        "label": "mapping(euint64 => address)",
        "numberOfBytes": "32",
        "value": "t_address"
      },
      "t_string_storage": {
        "encoding": "bytes",
        "label": "string",
        "numberOfBytes": "32"
      },
      "t_uint48": {
        "encoding": "inplace",
        "label": "uint48",
        "numberOfBytes": "6"
      },
      "t_userDefinedValueType(euint64)50106": {
        "encoding": "inplace",
        "label": "euint64",
        "numberOfBytes": "32"
      }
    }
  }
}